{
  "contractName": "ContestRecord",
  "abi": [
    {
      "anonymous": false,
      "inputs": [
        {
          "indexed": false,
          "internalType": "uint256",
          "name": "sID",
          "type": "uint256"
        },
        {
          "indexed": false,
          "internalType": "address",
          "name": "SponsorAddress",
          "type": "address"
        }
      ],
      "name": "e_activeSponor",
      "type": "event"
    },
    {
      "anonymous": false,
      "inputs": [
        {
          "indexed": false,
          "internalType": "uint256",
          "name": "tID",
          "type": "uint256"
        },
        {
          "indexed": false,
          "internalType": "address",
          "name": "TeamAddress",
          "type": "address"
        }
      ],
      "name": "e_activeTeam",
      "type": "event"
    },
    {
      "anonymous": false,
      "inputs": [
        {
          "indexed": false,
          "internalType": "uint256",
          "name": "mID",
          "type": "uint256"
        },
        {
          "indexed": false,
          "internalType": "uint256",
          "name": "rID",
          "type": "uint256"
        },
        {
          "indexed": false,
          "internalType": "uint256",
          "name": "tID",
          "type": "uint256"
        },
        {
          "indexed": false,
          "internalType": "string",
          "name": "player",
          "type": "string"
        },
        {
          "indexed": false,
          "internalType": "string",
          "name": "KDA",
          "type": "string"
        },
        {
          "indexed": false,
          "internalType": "string",
          "name": "mResult",
          "type": "string"
        },
        {
          "indexed": false,
          "internalType": "string",
          "name": "other",
          "type": "string"
        }
      ],
      "name": "e_addMatch",
      "type": "event"
    },
    {
      "anonymous": false,
      "inputs": [
        {
          "indexed": false,
          "internalType": "uint256",
          "name": "rID",
          "type": "uint256"
        },
        {
          "indexed": false,
          "internalType": "string",
          "name": "rGameName",
          "type": "string"
        },
        {
          "indexed": false,
          "internalType": "string",
          "name": "rContestName",
          "type": "string"
        },
        {
          "indexed": false,
          "internalType": "string",
          "name": "rTime",
          "type": "string"
        },
        {
          "indexed": false,
          "internalType": "string",
          "name": "rLocation",
          "type": "string"
        },
        {
          "indexed": false,
          "internalType": "uint256",
          "name": "tIDa",
          "type": "uint256"
        },
        {
          "indexed": false,
          "internalType": "uint256",
          "name": "tIDb",
          "type": "uint256"
        },
        {
          "indexed": false,
          "internalType": "string",
          "name": "rResult",
          "type": "string"
        },
        {
          "indexed": false,
          "internalType": "uint256",
          "name": "sID",
          "type": "uint256"
        }
      ],
      "name": "e_addRecord",
      "type": "event"
    },
    {
      "anonymous": false,
      "inputs": [
        {
          "indexed": false,
          "internalType": "address",
          "name": "newSponsorAddress",
          "type": "address"
        },
        {
          "indexed": false,
          "internalType": "uint256",
          "name": "sID",
          "type": "uint256"
        },
        {
          "indexed": false,
          "internalType": "string",
          "name": "sName",
          "type": "string"
        },
        {
          "indexed": false,
          "internalType": "string",
          "name": "sNation",
          "type": "string"
        },
        {
          "indexed": false,
          "internalType": "string",
          "name": "sLocation",
          "type": "string"
        },
        {
          "indexed": false,
          "internalType": "string",
          "name": "sEmail",
          "type": "string"
        },
        {
          "indexed": false,
          "internalType": "string",
          "name": "sWeb",
          "type": "string"
        }
      ],
      "name": "e_addSponorInstance",
      "type": "event"
    },
    {
      "anonymous": false,
      "inputs": [
        {
          "indexed": false,
          "internalType": "address",
          "name": "newTeamAddress",
          "type": "address"
        },
        {
          "indexed": false,
          "internalType": "uint256",
          "name": "tID",
          "type": "uint256"
        },
        {
          "indexed": false,
          "internalType": "string",
          "name": "tName",
          "type": "string"
        },
        {
          "indexed": false,
          "internalType": "string",
          "name": "tNation",
          "type": "string"
        },
        {
          "indexed": false,
          "internalType": "string",
          "name": "tLocation",
          "type": "string"
        },
        {
          "indexed": false,
          "internalType": "string",
          "name": "tEmail",
          "type": "string"
        },
        {
          "indexed": false,
          "internalType": "string",
          "name": "tWeb",
          "type": "string"
        }
      ],
      "name": "e_addTeamInstance",
      "type": "event"
    },
    {
      "anonymous": false,
      "inputs": [
        {
          "indexed": false,
          "internalType": "uint256",
          "name": "sID",
          "type": "uint256"
        },
        {
          "indexed": false,
          "internalType": "address",
          "name": "SponsorAddress",
          "type": "address"
        }
      ],
      "name": "e_freezeSponor",
      "type": "event"
    },
    {
      "anonymous": false,
      "inputs": [
        {
          "indexed": false,
          "internalType": "uint256",
          "name": "tID",
          "type": "uint256"
        },
        {
          "indexed": false,
          "internalType": "address",
          "name": "TeamAddress",
          "type": "address"
        }
      ],
      "name": "e_freezeTeam",
      "type": "event"
    },
    {
      "anonymous": false,
      "inputs": [
        {
          "indexed": false,
          "internalType": "uint256",
          "name": "mID",
          "type": "uint256"
        },
        {
          "indexed": false,
          "internalType": "uint256",
          "name": "rID",
          "type": "uint256"
        },
        {
          "indexed": false,
          "internalType": "uint256",
          "name": "tID",
          "type": "uint256"
        },
        {
          "indexed": false,
          "internalType": "string",
          "name": "player",
          "type": "string"
        },
        {
          "indexed": false,
          "internalType": "string",
          "name": "KDA",
          "type": "string"
        },
        {
          "indexed": false,
          "internalType": "string",
          "name": "mResult",
          "type": "string"
        },
        {
          "indexed": false,
          "internalType": "string",
          "name": "other",
          "type": "string"
        }
      ],
      "name": "e_getAddedMatchbymID",
      "type": "event"
    },
    {
      "anonymous": false,
      "inputs": [
        {
          "indexed": false,
          "internalType": "uint256",
          "name": "rID",
          "type": "uint256"
        },
        {
          "indexed": false,
          "internalType": "string",
          "name": "rGameName",
          "type": "string"
        },
        {
          "indexed": false,
          "internalType": "string",
          "name": "rContestName",
          "type": "string"
        },
        {
          "indexed": false,
          "internalType": "string",
          "name": "rTime",
          "type": "string"
        },
        {
          "indexed": false,
          "internalType": "string",
          "name": "rLocation",
          "type": "string"
        },
        {
          "indexed": false,
          "internalType": "uint256",
          "name": "tIDa",
          "type": "uint256"
        },
        {
          "indexed": false,
          "internalType": "uint256",
          "name": "tIDb",
          "type": "uint256"
        },
        {
          "indexed": false,
          "internalType": "string",
          "name": "rResult",
          "type": "string"
        },
        {
          "indexed": false,
          "internalType": "uint256",
          "name": "sID",
          "type": "uint256"
        }
      ],
      "name": "e_getAddedRecordbyrID",
      "type": "event"
    },
    {
      "anonymous": false,
      "inputs": [
        {
          "indexed": false,
          "internalType": "address",
          "name": "sAccount",
          "type": "address"
        },
        {
          "indexed": false,
          "internalType": "uint256",
          "name": "sID",
          "type": "uint256"
        },
        {
          "indexed": false,
          "internalType": "string",
          "name": "sName",
          "type": "string"
        },
        {
          "indexed": false,
          "internalType": "string",
          "name": "sNation",
          "type": "string"
        },
        {
          "indexed": false,
          "internalType": "string",
          "name": "sLocation",
          "type": "string"
        },
        {
          "indexed": false,
          "internalType": "string",
          "name": "sEmail",
          "type": "string"
        },
        {
          "indexed": false,
          "internalType": "string",
          "name": "sWeb",
          "type": "string"
        },
        {
          "indexed": false,
          "internalType": "bool",
          "name": "sisActive",
          "type": "bool"
        }
      ],
      "name": "e_getAddedSponorbyAddr",
      "type": "event"
    },
    {
      "anonymous": false,
      "inputs": [
        {
          "indexed": false,
          "internalType": "address",
          "name": "sAccount",
          "type": "address"
        },
        {
          "indexed": false,
          "internalType": "uint256",
          "name": "sID",
          "type": "uint256"
        }
      ],
      "name": "e_getAddedSponorbysID",
      "type": "event"
    },
    {
      "anonymous": false,
      "inputs": [
        {
          "indexed": false,
          "internalType": "address",
          "name": "tAccount",
          "type": "address"
        },
        {
          "indexed": false,
          "internalType": "uint256",
          "name": "tID",
          "type": "uint256"
        },
        {
          "indexed": false,
          "internalType": "string",
          "name": "tName",
          "type": "string"
        },
        {
          "indexed": false,
          "internalType": "string",
          "name": "tNation",
          "type": "string"
        },
        {
          "indexed": false,
          "internalType": "string",
          "name": "tLocation",
          "type": "string"
        },
        {
          "indexed": false,
          "internalType": "string",
          "name": "tEmail",
          "type": "string"
        },
        {
          "indexed": false,
          "internalType": "string",
          "name": "tWeb",
          "type": "string"
        },
        {
          "indexed": false,
          "internalType": "bool",
          "name": "tisActive",
          "type": "bool"
        }
      ],
      "name": "e_getAddedTeambyAddr",
      "type": "event"
    },
    {
      "anonymous": false,
      "inputs": [
        {
          "indexed": false,
          "internalType": "address",
          "name": "tAccount",
          "type": "address"
        },
        {
          "indexed": false,
          "internalType": "uint256",
          "name": "tID",
          "type": "uint256"
        }
      ],
      "name": "e_getAddedTeambytID",
      "type": "event"
    },
    {
      "constant": false,
      "inputs": [
        {
          "internalType": "uint256",
          "name": "sID",
          "type": "uint256"
        }
      ],
      "name": "activeSponor",
      "outputs": [],
      "payable": false,
      "stateMutability": "nonpayable",
      "type": "function"
    },
    {
      "constant": false,
      "inputs": [
        {
          "internalType": "uint256",
          "name": "sID",
          "type": "uint256"
        }
      ],
      "name": "freezeSponor",
      "outputs": [],
      "payable": false,
      "stateMutability": "nonpayable",
      "type": "function"
    },
    {
      "constant": false,
      "inputs": [
        {
          "internalType": "uint256",
          "name": "tID",
          "type": "uint256"
        }
      ],
      "name": "activeTeam",
      "outputs": [],
      "payable": false,
      "stateMutability": "nonpayable",
      "type": "function"
    },
    {
      "constant": false,
      "inputs": [
        {
          "internalType": "uint256",
          "name": "tID",
          "type": "uint256"
        }
      ],
      "name": "freezeTeam",
      "outputs": [],
      "payable": false,
      "stateMutability": "nonpayable",
      "type": "function"
    },
    {
      "constant": false,
      "inputs": [
        {
          "internalType": "address",
          "name": "SponsorAddress",
          "type": "address"
        }
      ],
      "name": "getAddedSponorbyAddr",
      "outputs": [
        {
          "internalType": "address",
          "name": "sAccount",
          "type": "address"
        },
        {
          "internalType": "uint256",
          "name": "sID",
          "type": "uint256"
        },
        {
          "internalType": "string",
          "name": "sName",
          "type": "string"
        },
        {
          "internalType": "string",
          "name": "sNation",
          "type": "string"
        },
        {
          "internalType": "string",
          "name": "sLocation",
          "type": "string"
        },
        {
          "internalType": "string",
          "name": "sEmail",
          "type": "string"
        },
        {
          "internalType": "string",
          "name": "sWeb",
          "type": "string"
        },
        {
          "internalType": "bool",
          "name": "sisActive",
          "type": "bool"
        }
      ],
      "payable": false,
      "stateMutability": "nonpayable",
      "type": "function"
    },
    {
      "constant": false,
      "inputs": [
        {
          "internalType": "address",
          "name": "TeamAddress",
          "type": "address"
        }
      ],
      "name": "getAddedTeambyAddr",
      "outputs": [
        {
          "internalType": "address",
          "name": "tAccount",
          "type": "address"
        },
        {
          "internalType": "uint256",
          "name": "tID",
          "type": "uint256"
        },
        {
          "internalType": "string",
          "name": "tName",
          "type": "string"
        },
        {
          "internalType": "string",
          "name": "tNation",
          "type": "string"
        },
        {
          "internalType": "string",
          "name": "tLocation",
          "type": "string"
        },
        {
          "internalType": "string",
          "name": "tEmail",
          "type": "string"
        },
        {
          "internalType": "string",
          "name": "tWeb",
          "type": "string"
        },
        {
          "internalType": "bool",
          "name": "tisActive",
          "type": "bool"
        }
      ],
      "payable": false,
      "stateMutability": "nonpayable",
      "type": "function"
    },
    {
      "constant": false,
      "inputs": [
        {
          "internalType": "uint256",
          "name": "_sID",
          "type": "uint256"
        }
      ],
      "name": "getAddedSponorbysID",
      "outputs": [
        {
          "internalType": "address",
          "name": "sAccount",
          "type": "address"
        },
        {
          "internalType": "uint256",
          "name": "sID",
          "type": "uint256"
        }
      ],
      "payable": false,
      "stateMutability": "nonpayable",
      "type": "function"
    },
    {
      "constant": false,
      "inputs": [
        {
          "internalType": "uint256",
          "name": "_tID",
          "type": "uint256"
        }
      ],
      "name": "getAddedTeambytID",
      "outputs": [
        {
          "internalType": "address",
          "name": "tAccount",
          "type": "address"
        },
        {
          "internalType": "uint256",
          "name": "tID",
          "type": "uint256"
        }
      ],
      "payable": false,
      "stateMutability": "nonpayable",
      "type": "function"
    },
    {
      "constant": false,
      "inputs": [
        {
          "internalType": "uint256",
          "name": "_rID",
          "type": "uint256"
        }
      ],
      "name": "getAddedRecordbyrID",
      "outputs": [
        {
          "internalType": "uint256",
          "name": "rID",
          "type": "uint256"
        },
        {
          "internalType": "string",
          "name": "rGameName",
          "type": "string"
        },
        {
          "internalType": "string",
          "name": "rContestName",
          "type": "string"
        },
        {
          "internalType": "string",
          "name": "rTime",
          "type": "string"
        },
        {
          "internalType": "string",
          "name": "rLocation",
          "type": "string"
        },
        {
          "internalType": "uint256",
          "name": "tIDa",
          "type": "uint256"
        },
        {
          "internalType": "uint256",
          "name": "tIDb",
          "type": "uint256"
        },
        {
          "internalType": "string",
          "name": "rResult",
          "type": "string"
        },
        {
          "internalType": "uint256",
          "name": "sID",
          "type": "uint256"
        }
      ],
      "payable": false,
      "stateMutability": "nonpayable",
      "type": "function"
    },
    {
      "constant": false,
      "inputs": [
        {
          "internalType": "uint256",
          "name": "_mID",
          "type": "uint256"
        }
      ],
      "name": "getAddedMatchbymID",
      "outputs": [
        {
          "internalType": "uint256",
          "name": "mID",
          "type": "uint256"
        },
        {
          "internalType": "uint256",
          "name": "rID",
          "type": "uint256"
        },
        {
          "internalType": "uint256",
          "name": "tID",
          "type": "uint256"
        },
        {
          "internalType": "string",
          "name": "player",
          "type": "string"
        },
        {
          "internalType": "string",
          "name": "KDA",
          "type": "string"
        },
        {
          "internalType": "string",
          "name": "mResult",
          "type": "string"
        },
        {
          "internalType": "string",
          "name": "other",
          "type": "string"
        }
      ],
      "payable": false,
      "stateMutability": "nonpayable",
      "type": "function"
    },
    {
      "constant": false,
      "inputs": [
        {
          "internalType": "address",
          "name": "newSponsorAddress",
          "type": "address"
        },
        {
          "internalType": "uint256",
          "name": "sID",
          "type": "uint256"
        },
        {
          "internalType": "string",
          "name": "sName",
          "type": "string"
        },
        {
          "internalType": "string",
          "name": "sNation",
          "type": "string"
        },
        {
          "internalType": "string",
          "name": "sLocation",
          "type": "string"
        },
        {
          "internalType": "string",
          "name": "sEmail",
          "type": "string"
        },
        {
          "internalType": "string",
          "name": "sWeb",
          "type": "string"
        }
      ],
      "name": "addSponorInstance",
      "outputs": [],
      "payable": false,
      "stateMutability": "nonpayable",
      "type": "function"
    },
    {
      "constant": false,
      "inputs": [
        {
          "internalType": "uint256",
          "name": "rID",
          "type": "uint256"
        },
        {
          "internalType": "string",
          "name": "rGameName",
          "type": "string"
        },
        {
          "internalType": "string",
          "name": "rContestName",
          "type": "string"
        },
        {
          "internalType": "string",
          "name": "rTime",
          "type": "string"
        },
        {
          "internalType": "string",
          "name": "rLocation",
          "type": "string"
        },
        {
          "internalType": "uint256",
          "name": "tIDa",
          "type": "uint256"
        },
        {
          "internalType": "uint256",
          "name": "tIDb",
          "type": "uint256"
        },
        {
          "internalType": "string",
          "name": "rResult",
          "type": "string"
        },
        {
          "internalType": "uint256",
          "name": "sID",
          "type": "uint256"
        }
      ],
      "name": "addRecord",
      "outputs": [],
      "payable": false,
      "stateMutability": "nonpayable",
      "type": "function"
    },
    {
      "constant": false,
      "inputs": [
        {
          "internalType": "address",
          "name": "newTeamAddress",
          "type": "address"
        },
        {
          "internalType": "uint256",
          "name": "tID",
          "type": "uint256"
        },
        {
          "internalType": "string",
          "name": "tName",
          "type": "string"
        },
        {
          "internalType": "string",
          "name": "tNation",
          "type": "string"
        },
        {
          "internalType": "string",
          "name": "tLocation",
          "type": "string"
        },
        {
          "internalType": "string",
          "name": "tEmail",
          "type": "string"
        },
        {
          "internalType": "string",
          "name": "tWeb",
          "type": "string"
        }
      ],
      "name": "addTeamInstance",
      "outputs": [],
      "payable": false,
      "stateMutability": "nonpayable",
      "type": "function"
    },
    {
      "constant": false,
      "inputs": [
        {
          "internalType": "uint256",
          "name": "mID",
          "type": "uint256"
        },
        {
          "internalType": "uint256",
          "name": "rID",
          "type": "uint256"
        },
        {
          "internalType": "uint256",
          "name": "tID",
          "type": "uint256"
        },
        {
          "internalType": "string",
          "name": "player",
          "type": "string"
        },
        {
          "internalType": "string",
          "name": "KDA",
          "type": "string"
        },
        {
          "internalType": "string",
          "name": "mResult",
          "type": "string"
        },
        {
          "internalType": "string",
          "name": "other",
          "type": "string"
        }
      ],
      "name": "addMatch",
      "outputs": [],
      "payable": false,
      "stateMutability": "nonpayable",
      "type": "function"
    }
  ],
  "bytecode": "0x608060405234801561001057600080fd5b50615a6280620000216000396000f3fe608060405234801561001057600080fd5b50600436106100ea5760003560e01c8063b4179ab21161008c578063e0b0000611610066578063e0b0000614610ed8578063eb24551c14610f06578063fc105d5e14611246578063fc519f2e14611587576100ea565b8063b4179ab214610bc2578063bad7806114610c37578063d31fc0d614610eaa576100ea565b80637900b1ce116100c85780637900b1ce146103fd578063794243c4146106af5780638b79ec5a146108af578063929f803d14610b4d576100ea565b8063372a7b83146100ef5780635d300ae11461011d5780636e5d39ca1461014b575b600080fd5b61011b6004803603602081101561010557600080fd5b81019080803590602001909291905050506118c8565b005b6101496004803603602081101561013357600080fd5b8101908080359060200190929190505050611aba565b005b61018d6004803603602081101561016157600080fd5b81019080803573ffffffffffffffffffffffffffffffffffffffff169060200190929190505050611cac565b604051808973ffffffffffffffffffffffffffffffffffffffff1673ffffffffffffffffffffffffffffffffffffffff16815260200188815260200180602001806020018060200180602001806020018715151515815260200186810386528c818151815260200191508051906020019080838360005b8381101561021f578082015181840152602081019050610204565b50505050905090810190601f16801561024c5780820380516001836020036101000a031916815260200191505b5086810385528b818151815260200191508051906020019080838360005b8381101561028557808201518184015260208101905061026a565b50505050905090810190601f1680156102b25780820380516001836020036101000a031916815260200191505b5086810384528a818151815260200191508051906020019080838360005b838110156102eb5780820151818401526020810190506102d0565b50505050905090810190601f1680156103185780820380516001836020036101000a031916815260200191505b50868103835289818151815260200191508051906020019080838360005b83811015610351578082015181840152602081019050610336565b50505050905090810190601f16801561037e5780820380516001836020036101000a031916815260200191505b50868103825288818151815260200191508051906020019080838360005b838110156103b757808201518184015260208101905061039c565b50505050905090810190601f1680156103e45780820380516001836020036101000a031916815260200191505b509d505050505050505050505050505060405180910390f35b61043f6004803603602081101561041357600080fd5b81019080803573ffffffffffffffffffffffffffffffffffffffff1690602001909291905050506123fd565b604051808973ffffffffffffffffffffffffffffffffffffffff1673ffffffffffffffffffffffffffffffffffffffff16815260200188815260200180602001806020018060200180602001806020018715151515815260200186810386528c818151815260200191508051906020019080838360005b838110156104d15780820151818401526020810190506104b6565b50505050905090810190601f1680156104fe5780820380516001836020036101000a031916815260200191505b5086810385528b818151815260200191508051906020019080838360005b8381101561053757808201518184015260208101905061051c565b50505050905090810190601f1680156105645780820380516001836020036101000a031916815260200191505b5086810384528a818151815260200191508051906020019080838360005b8381101561059d578082015181840152602081019050610582565b50505050905090810190601f1680156105ca5780820380516001836020036101000a031916815260200191505b50868103835289818151815260200191508051906020019080838360005b838110156106035780820151818401526020810190506105e8565b50505050905090810190601f1680156106305780820380516001836020036101000a031916815260200191505b50868103825288818151815260200191508051906020019080838360005b8381101561066957808201518184015260208101905061064e565b50505050905090810190601f1680156106965780820380516001836020036101000a031916815260200191505b509d505050505050505050505050505060405180910390f35b6106db600480360360208110156106c557600080fd5b8101908080359060200190929190505050612b4e565b6040518088815260200187815260200186815260200180602001806020018060200180602001858103855289818151815260200191508051906020019080838360005b8381101561073957808201518184015260208101905061071e565b50505050905090810190601f1680156107665780820380516001836020036101000a031916815260200191505b50858103845288818151815260200191508051906020019080838360005b8381101561079f578082015181840152602081019050610784565b50505050905090810190601f1680156107cc5780820380516001836020036101000a031916815260200191505b50858103835287818151815260200191508051906020019080838360005b838110156108055780820151818401526020810190506107ea565b50505050905090810190601f1680156108325780820380516001836020036101000a031916815260200191505b50858103825286818151815260200191508051906020019080838360005b8381101561086b578082015181840152602081019050610850565b50505050905090810190601f1680156108985780820380516001836020036101000a031916815260200191505b509b50505050505050505050505060405180910390f35b610b4b600480360360e08110156108c557600080fd5b810190808035906020019092919080359060200190929190803590602001909291908035906020019064010000000081111561090057600080fd5b82018360208201111561091257600080fd5b8035906020019184600183028401116401000000008311171561093457600080fd5b91908080601f016020809104026020016040519081016040528093929190818152602001838380828437600081840152601f19601f8201169050808301925050505050505091929192908035906020019064010000000081111561099757600080fd5b8201836020820111156109a957600080fd5b803590602001918460018302840111640100000000831117156109cb57600080fd5b91908080601f016020809104026020016040519081016040528093929190818152602001838380828437600081840152601f19601f82011690508083019250505050505050919291929080359060200190640100000000811115610a2e57600080fd5b820183602082011115610a4057600080fd5b80359060200191846001830284011164010000000083111715610a6257600080fd5b91908080601f016020809104026020016040519081016040528093929190818152602001838380828437600081840152601f19601f82011690508083019250505050505050919291929080359060200190640100000000811115610ac557600080fd5b820183602082011115610ad757600080fd5b80359060200191846001830284011164010000000083111715610af957600080fd5b91908080601f016020809104026020016040519081016040528093929190818152602001838380828437600081840152601f19601f8201169050808301925050505050505091929192905050506130d4565b005b610b7960048036036020811015610b6357600080fd5b81019080803590602001909291905050506137e8565b604051808373ffffffffffffffffffffffffffffffffffffffff1673ffffffffffffffffffffffffffffffffffffffff1681526020018281526020019250505060405180910390f35b610bee60048036036020811015610bd857600080fd5b8101908080359060200190929190505050613934565b604051808373ffffffffffffffffffffffffffffffffffffffff1673ffffffffffffffffffffffffffffffffffffffff1681526020018281526020019250505060405180910390f35b610c6360048036036020811015610c4d57600080fd5b8101908080359060200190929190505050613a80565b604051808a8152602001806020018060200180602001806020018981526020018881526020018060200187815260200186810386528e818151815260200191508051906020019080838360005b83811015610ccb578082015181840152602081019050610cb0565b50505050905090810190601f168015610cf85780820380516001836020036101000a031916815260200191505b5086810385528d818151815260200191508051906020019080838360005b83811015610d31578082015181840152602081019050610d16565b50505050905090810190601f168015610d5e5780820380516001836020036101000a031916815260200191505b5086810384528c818151815260200191508051906020019080838360005b83811015610d97578082015181840152602081019050610d7c565b50505050905090810190601f168015610dc45780820380516001836020036101000a031916815260200191505b5086810383528b818151815260200191508051906020019080838360005b83811015610dfd578082015181840152602081019050610de2565b50505050905090810190601f168015610e2a5780820380516001836020036101000a031916815260200191505b50868103825288818151815260200191508051906020019080838360005b83811015610e63578082015181840152602081019050610e48565b50505050905090810190601f168015610e905780820380516001836020036101000a031916815260200191505b509e50505050505050505050505050505060405180910390f35b610ed660048036036020811015610ec057600080fd5b810190808035906020019092919050505061414e565b005b610f0460048036036020811015610eee57600080fd5b810190808035906020019092919050505061433f565b005b6112446004803603610120811015610f1d57600080fd5b810190808035906020019092919080359060200190640100000000811115610f4457600080fd5b820183602082011115610f5657600080fd5b80359060200191846001830284011164010000000083111715610f7857600080fd5b91908080601f016020809104026020016040519081016040528093929190818152602001838380828437600081840152601f19601f82011690508083019250505050505050919291929080359060200190640100000000811115610fdb57600080fd5b820183602082011115610fed57600080fd5b8035906020019184600183028401116401000000008311171561100f57600080fd5b91908080601f016020809104026020016040519081016040528093929190818152602001838380828437600081840152601f19601f8201169050808301925050505050505091929192908035906020019064010000000081111561107257600080fd5b82018360208201111561108457600080fd5b803590602001918460018302840111640100000000831117156110a657600080fd5b91908080601f016020809104026020016040519081016040528093929190818152602001838380828437600081840152601f19601f8201169050808301925050505050505091929192908035906020019064010000000081111561110957600080fd5b82018360208201111561111b57600080fd5b8035906020019184600183028401116401000000008311171561113d57600080fd5b91908080601f016020809104026020016040519081016040528093929190818152602001838380828437600081840152601f19601f8201169050808301925050505050505091929192908035906020019092919080359060200190929190803590602001906401000000008111156111b457600080fd5b8201836020820111156111c657600080fd5b803590602001918460018302840111640100000000831117156111e857600080fd5b91908080601f016020809104026020016040519081016040528093929190818152602001838380828437600081840152601f19601f82011690508083019250505050505050919291929080359060200190929190505050614531565b005b611585600480360360e081101561125c57600080fd5b81019080803573ffffffffffffffffffffffffffffffffffffffff16906020019092919080359060200190929190803590602001906401000000008111156112a357600080fd5b8201836020820111156112b557600080fd5b803590602001918460018302840111640100000000831117156112d757600080fd5b91908080601f016020809104026020016040519081016040528093929190818152602001838380828437600081840152601f19601f8201169050808301925050505050505091929192908035906020019064010000000081111561133a57600080fd5b82018360208201111561134c57600080fd5b8035906020019184600183028401116401000000008311171561136e57600080fd5b91908080601f016020809104026020016040519081016040528093929190818152602001838380828437600081840152601f19601f820116905080830192505050505050509192919290803590602001906401000000008111156113d157600080fd5b8201836020820111156113e357600080fd5b8035906020019184600183028401116401000000008311171561140557600080fd5b91908080601f016020809104026020016040519081016040528093929190818152602001838380828437600081840152601f19601f8201169050808301925050505050505091929192908035906020019064010000000081111561146857600080fd5b82018360208201111561147a57600080fd5b8035906020019184600183028401116401000000008311171561149c57600080fd5b91908080601f016020809104026020016040519081016040528093929190818152602001838380828437600081840152601f19601f820116905080830192505050505050509192919290803590602001906401000000008111156114ff57600080fd5b82018360208201111561151157600080fd5b8035906020019184600183028401116401000000008311171561153357600080fd5b91908080601f016020809104026020016040519081016040528093929190818152602001838380828437600081840152601f19601f820116905080830192505050505050509192919290505050614ee7565b005b6118c6600480360360e081101561159d57600080fd5b81019080803573ffffffffffffffffffffffffffffffffffffffff16906020019092919080359060200190929190803590602001906401000000008111156115e457600080fd5b8201836020820111156115f657600080fd5b8035906020019184600183028401116401000000008311171561161857600080fd5b91908080601f016020809104026020016040519081016040528093929190818152602001838380828437600081840152601f19601f8201169050808301925050505050505091929192908035906020019064010000000081111561167b57600080fd5b82018360208201111561168d57600080fd5b803590602001918460018302840111640100000000831117156116af57600080fd5b91908080601f016020809104026020016040519081016040528093929190818152602001838380828437600081840152601f19601f8201169050808301925050505050505091929192908035906020019064010000000081111561171257600080fd5b82018360208201111561172457600080fd5b8035906020019184600183028401116401000000008311171561174657600080fd5b91908080601f016020809104026020016040519081016040528093929190818152602001838380828437600081840152601f19601f820116905080830192505050505050509192919290803590602001906401000000008111156117a957600080fd5b8201836020820111156117bb57600080fd5b803590602001918460018302840111640100000000831117156117dd57600080fd5b91908080601f016020809104026020016040519081016040528093929190818152602001838380828437600081840152601f19601f8201169050808301925050505050505091929192908035906020019064010000000081111561184057600080fd5b82018360208201111561185257600080fd5b8035906020019184600183028401116401000000008311171561187457600080fd5b91908080601f016020809104026020016040519081016040528093929190818152602001838380828437600081840152601f19601f8201169050808301925050505050505091929192905050506153f4565b005b6000809054906101000a900473ffffffffffffffffffffffffffffffffffffffff1673ffffffffffffffffffffffffffffffffffffffff163373ffffffffffffffffffffffffffffffffffffffff161461192157600080fd5b600073ffffffffffffffffffffffffffffffffffffffff166004600083815260200190815260200160002060009054906101000a900473ffffffffffffffffffffffffffffffffffffffff1673ffffffffffffffffffffffffffffffffffffffff16141561198e57600080fd5b6000600160006004600085815260200190815260200160002060009054906101000a900473ffffffffffffffffffffffffffffffffffffffff1673ffffffffffffffffffffffffffffffffffffffff1673ffffffffffffffffffffffffffffffffffffffff16815260200190815260200160002060006101000a81548160ff0219169083151502179055507fe9656384d3b384e8b9e5660b3ea278224b6bb242fe514ffed9c10cfb47cd92ec816004600084815260200190815260200160002060009054906101000a900473ffffffffffffffffffffffffffffffffffffffff16604051808381526020018273ffffffffffffffffffffffffffffffffffffffff1673ffffffffffffffffffffffffffffffffffffffff1681526020019250505060405180910390a150565b6000809054906101000a900473ffffffffffffffffffffffffffffffffffffffff1673ffffffffffffffffffffffffffffffffffffffff163373ffffffffffffffffffffffffffffffffffffffff1614611b1357600080fd5b600073ffffffffffffffffffffffffffffffffffffffff166007600083815260200190815260200160002060009054906101000a900473ffffffffffffffffffffffffffffffffffffffff1673ffffffffffffffffffffffffffffffffffffffff161415611b8057600080fd5b6001600260006007600085815260200190815260200160002060009054906101000a900473ffffffffffffffffffffffffffffffffffffffff1673ffffffffffffffffffffffffffffffffffffffff1673ffffffffffffffffffffffffffffffffffffffff16815260200190815260200160002060006101000a81548160ff0219169083151502179055507f4affe26fbf52d474622d461e84d4fcf15ca915d1e99fdbbe027b2b3a1898ad17816007600084815260200190815260200160002060009054906101000a900473ffffffffffffffffffffffffffffffffffffffff16604051808381526020018273ffffffffffffffffffffffffffffffffffffffff1673ffffffffffffffffffffffffffffffffffffffff1681526020019250505060405180910390a150565b6000806060806060806060600060011515600660008b73ffffffffffffffffffffffffffffffffffffffff1673ffffffffffffffffffffffffffffffffffffffff16815260200190815260200160002060070160009054906101000a900460ff16151514611d1957600080fd5b6000600660008b73ffffffffffffffffffffffffffffffffffffffff1673ffffffffffffffffffffffffffffffffffffffff16815260200190815260200160002090507ff42f740ee55e41400bc9d7c3a1c0745c7ca283e2d9c227d6f16f1aff3135532a8a826001015483600201846003018560040186600501876006018860070160009054906101000a900460ff16604051808973ffffffffffffffffffffffffffffffffffffffff1673ffffffffffffffffffffffffffffffffffffffff16815260200188815260200180602001806020018060200180602001806020018715151515815260200186810386528c818154600181600116156101000203166002900481526020019150805460018160011615610100020316600290048015611e845780601f10611e5957610100808354040283529160200191611e84565b820191906000526020600020905b815481529060010190602001808311611e6757829003601f168201915b505086810385528b818154600181600116156101000203166002900481526020019150805460018160011615610100020316600290048015611f075780601f10611edc57610100808354040283529160200191611f07565b820191906000526020600020905b815481529060010190602001808311611eea57829003601f168201915b505086810384528a818154600181600116156101000203166002900481526020019150805460018160011615610100020316600290048015611f8a5780601f10611f5f57610100808354040283529160200191611f8a565b820191906000526020600020905b815481529060010190602001808311611f6d57829003601f168201915b505086810383528981815460018160011615610100020316600290048152602001915080546001816001161561010002031660029004801561200d5780601f10611fe25761010080835404028352916020019161200d565b820191906000526020600020905b815481529060010190602001808311611ff057829003601f168201915b50508681038252888181546001816001161561010002031660029004815260200191508054600181600116156101000203166002900480156120905780601f1061206557610100808354040283529160200191612090565b820191906000526020600020905b81548152906001019060200180831161207357829003601f168201915b50509d505050505050505050505050505060405180910390a189816001015482600201836003018460040185600501866006018760070160009054906101000a900460ff16858054600181600116156101000203166002900480601f01602080910402602001604051908101604052809291908181526020018280546001816001161561010002031660029004801561216a5780601f1061213f5761010080835404028352916020019161216a565b820191906000526020600020905b81548152906001019060200180831161214d57829003601f168201915b50505050509550848054600181600116156101000203166002900480601f0160208091040260200160405190810160405280929190818152602001828054600181600116156101000203166002900480156122065780601f106121db57610100808354040283529160200191612206565b820191906000526020600020905b8154815290600101906020018083116121e957829003601f168201915b50505050509450838054600181600116156101000203166002900480601f0160208091040260200160405190810160405280929190818152602001828054600181600116156101000203166002900480156122a25780601f10612277576101008083540402835291602001916122a2565b820191906000526020600020905b81548152906001019060200180831161228557829003601f168201915b50505050509350828054600181600116156101000203166002900480601f01602080910402602001604051908101604052809291908181526020018280546001816001161561010002031660029004801561233e5780601f106123135761010080835404028352916020019161233e565b820191906000526020600020905b81548152906001019060200180831161232157829003601f168201915b50505050509250818054600181600116156101000203166002900480601f0160208091040260200160405190810160405280929190818152602001828054600181600116156101000203166002900480156123da5780601f106123af576101008083540402835291602001916123da565b820191906000526020600020905b8154815290600101906020018083116123bd57829003601f168201915b505050505091509850985098509850985098509850985050919395975091939597565b6000806060806060806060600060011515600360008b73ffffffffffffffffffffffffffffffffffffffff1673ffffffffffffffffffffffffffffffffffffffff16815260200190815260200160002060070160009054906101000a900460ff1615151461246a57600080fd5b6000600360008b73ffffffffffffffffffffffffffffffffffffffff1673ffffffffffffffffffffffffffffffffffffffff16815260200190815260200160002090507f10410364d2bbcd5f9f4d2e8ba04eaad3b7b3a17f278409f34a28c69a3e194a7c8a826001015483600201846003018560040186600501876006018860070160009054906101000a900460ff16604051808973ffffffffffffffffffffffffffffffffffffffff1673ffffffffffffffffffffffffffffffffffffffff16815260200188815260200180602001806020018060200180602001806020018715151515815260200186810386528c8181546001816001161561010002031660029004815260200191508054600181600116156101000203166002900480156125d55780601f106125aa576101008083540402835291602001916125d5565b820191906000526020600020905b8154815290600101906020018083116125b857829003601f168201915b505086810385528b8181546001816001161561010002031660029004815260200191508054600181600116156101000203166002900480156126585780601f1061262d57610100808354040283529160200191612658565b820191906000526020600020905b81548152906001019060200180831161263b57829003601f168201915b505086810384528a8181546001816001161561010002031660029004815260200191508054600181600116156101000203166002900480156126db5780601f106126b0576101008083540402835291602001916126db565b820191906000526020600020905b8154815290600101906020018083116126be57829003601f168201915b505086810383528981815460018160011615610100020316600290048152602001915080546001816001161561010002031660029004801561275e5780601f106127335761010080835404028352916020019161275e565b820191906000526020600020905b81548152906001019060200180831161274157829003601f168201915b50508681038252888181546001816001161561010002031660029004815260200191508054600181600116156101000203166002900480156127e15780601f106127b6576101008083540402835291602001916127e1565b820191906000526020600020905b8154815290600101906020018083116127c457829003601f168201915b50509d505050505050505050505050505060405180910390a189816001015482600201836003018460040185600501866006018760070160009054906101000a900460ff16858054600181600116156101000203166002900480601f0160208091040260200160405190810160405280929190818152602001828054600181600116156101000203166002900480156128bb5780601f10612890576101008083540402835291602001916128bb565b820191906000526020600020905b81548152906001019060200180831161289e57829003601f168201915b50505050509550848054600181600116156101000203166002900480601f0160208091040260200160405190810160405280929190818152602001828054600181600116156101000203166002900480156129575780601f1061292c57610100808354040283529160200191612957565b820191906000526020600020905b81548152906001019060200180831161293a57829003601f168201915b50505050509450838054600181600116156101000203166002900480601f0160208091040260200160405190810160405280929190818152602001828054600181600116156101000203166002900480156129f35780601f106129c8576101008083540402835291602001916129f3565b820191906000526020600020905b8154815290600101906020018083116129d657829003601f168201915b50505050509350828054600181600116156101000203166002900480601f016020809104026020016040519081016040528092919081815260200182805460018160011615610100020316600290048015612a8f5780601f10612a6457610100808354040283529160200191612a8f565b820191906000526020600020905b815481529060010190602001808311612a7257829003601f168201915b50505050509250818054600181600116156101000203166002900480601f016020809104026020016040519081016040528092919081815260200182805460018160011615610100020316600290048015612b2b5780601f10612b0057610100808354040283529160200191612b2b565b820191906000526020600020905b815481529060010190602001808311612b0e57829003601f168201915b505050505091509850985098509850985098509850985050919395975091939597565b600080600060608060608060011515601e60008a815260200190815260200160002060070160009054906101000a900460ff16151514612b8d57600080fd5b6000601e60008a815260200190815260200160002090507f185ba4ddc8f4c0ad3c29b7606a31bcc0a9e776b4e7a618fed325afc06b00f7bc816000015482600101548360020154846003018560040186600501876006016040518088815260200187815260200186815260200180602001806020018060200180602001858103855289818154600181600116156101000203166002900481526020019150805460018160011615610100020316600290048015612c8b5780601f10612c6057610100808354040283529160200191612c8b565b820191906000526020600020905b815481529060010190602001808311612c6e57829003601f168201915b5050858103845288818154600181600116156101000203166002900481526020019150805460018160011615610100020316600290048015612d0e5780601f10612ce357610100808354040283529160200191612d0e565b820191906000526020600020905b815481529060010190602001808311612cf157829003601f168201915b5050858103835287818154600181600116156101000203166002900481526020019150805460018160011615610100020316600290048015612d915780601f10612d6657610100808354040283529160200191612d91565b820191906000526020600020905b815481529060010190602001808311612d7457829003601f168201915b5050858103825286818154600181600116156101000203166002900481526020019150805460018160011615610100020316600290048015612e145780601f10612de957610100808354040283529160200191612e14565b820191906000526020600020905b815481529060010190602001808311612df757829003601f168201915b50509b50505050505050505050505060405180910390a180600001548160010154826002015483600301846004018560050186600601838054600181600116156101000203166002900480601f016020809104026020016040519081016040528092919081815260200182805460018160011615610100020316600290048015612edf5780601f10612eb457610100808354040283529160200191612edf565b820191906000526020600020905b815481529060010190602001808311612ec257829003601f168201915b50505050509350828054600181600116156101000203166002900480601f016020809104026020016040519081016040528092919081815260200182805460018160011615610100020316600290048015612f7b5780601f10612f5057610100808354040283529160200191612f7b565b820191906000526020600020905b815481529060010190602001808311612f5e57829003601f168201915b50505050509250818054600181600116156101000203166002900480601f0160208091040260200160405190810160405280929190818152602001828054600181600116156101000203166002900480156130175780601f10612fec57610100808354040283529160200191613017565b820191906000526020600020905b815481529060010190602001808311612ffa57829003601f168201915b50505050509150808054600181600116156101000203166002900480601f0160208091040260200160405190810160405280929190818152602001828054600181600116156101000203166002900480156130b35780601f10613088576101008083540402835291602001916130b3565b820191906000526020600020905b81548152906001019060200180831161309657829003601f168201915b50505050509050975097509750975097509750975050919395979092949650565b60011515600660003373ffffffffffffffffffffffffffffffffffffffff1673ffffffffffffffffffffffffffffffffffffffff16815260200190815260200160002060070160009054906101000a900460ff1615151461313457600080fd5b60011515600260003373ffffffffffffffffffffffffffffffffffffffff1673ffffffffffffffffffffffffffffffffffffffff16815260200190815260200160002060009054906101000a900460ff1615151461319157600080fd5b604051806101000160405280888152602001878152602001868152602001858152602001848152602001838152602001828152602001600115158152506016600082015181600001556020820151816001015560408201518160020155606082015181600301908051906020019061320a929190615901565b506080820151816004019080519060200190613227929190615901565b5060a0820151816005019080519060200190613244929190615901565b5060c0820151816006019080519060200190613261929190615901565b5060e08201518160070160006101000a81548160ff0219169083151502179055509050506016601e6000898152602001908152602001600020600082015481600001556001820154816001015560028201548160020155600382018160030190805460018160011615610100020316600290046132df929190615981565b5060048201816004019080546001816001161561010002031660029004613307929190615981565b506005820181600501908054600181600116156101000203166002900461332f929190615981565b5060068201816006019080546001816001161561010002031660029004613357929190615981565b506007820160009054906101000a900460ff168160070160006101000a81548160ff021916908315150217905550905050602060008681526020019081526020016000206016908060018154018082558091505090600182039060005260206000209060080201600090919290919091506000820154816000015560018201548160010155600282015481600201556003820181600301908054600181600116156101000203166002900461340d929190615981565b5060048201816004019080546001816001161561010002031660029004613435929190615981565b506005820181600501908054600181600116156101000203166002900461345d929190615981565b5060068201816006019080546001816001161561010002031660029004613485929190615981565b506007820160009054906101000a900460ff168160070160006101000a81548160ff021916908315150217905550505050601f60008781526020019081526020016000206016908060018154018082558091505090600182039060005260206000209060080201600090919290919091506000820154816000015560018201548160010155600282015481600201556003820181600301908054600181600116156101000203166002900461353b929190615981565b5060048201816004019080546001816001161561010002031660029004613563929190615981565b506005820181600501908054600181600116156101000203166002900461358b929190615981565b50600682018160060190805460018160011615610100020316600290046135b3929190615981565b506007820160009054906101000a900460ff168160070160006101000a81548160ff0219169083151502179055505050507fc7cf5a6c479244c3fe16170e986c3bd1ca4e9252d6f88fedce873e97f4cd3992878787878787876040518088815260200187815260200186815260200180602001806020018060200180602001858103855289818151815260200191508051906020019080838360005b8381101561366a57808201518184015260208101905061364f565b50505050905090810190601f1680156136975780820380516001836020036101000a031916815260200191505b50858103845288818151815260200191508051906020019080838360005b838110156136d05780820151818401526020810190506136b5565b50505050905090810190601f1680156136fd5780820380516001836020036101000a031916815260200191505b50858103835287818151815260200191508051906020019080838360005b8381101561373657808201518184015260208101905061371b565b50505050905090810190601f1680156137635780820380516001836020036101000a031916815260200191505b50858103825286818151815260200191508051906020019080838360005b8381101561379c578082015181840152602081019050613781565b50505050905090810190601f1680156137c95780820380516001836020036101000a031916815260200191505b509b50505050505050505050505060405180910390a150505050505050565b600080600073ffffffffffffffffffffffffffffffffffffffff166004600085815260200190815260200160002060009054906101000a900473ffffffffffffffffffffffffffffffffffffffff1673ffffffffffffffffffffffffffffffffffffffff16141561385857600080fd5b7fb0f8170fcbe8e887cc0e8c9cd6a6ee2c23c3ed697afc19cd1e194941db9ee4f06004600085815260200190815260200160002060009054906101000a900473ffffffffffffffffffffffffffffffffffffffff1684604051808373ffffffffffffffffffffffffffffffffffffffff1673ffffffffffffffffffffffffffffffffffffffff1681526020018281526020019250505060405180910390a16004600084815260200190815260200160002060009054906101000a900473ffffffffffffffffffffffffffffffffffffffff168391509150915091565b600080600073ffffffffffffffffffffffffffffffffffffffff166007600085815260200190815260200160002060009054906101000a900473ffffffffffffffffffffffffffffffffffffffff1673ffffffffffffffffffffffffffffffffffffffff1614156139a457600080fd5b7f6fc24287df24266e17f76a356bb2ca2908bd583ba06cf502905b13debc7c0bbc6007600085815260200190815260200160002060009054906101000a900473ffffffffffffffffffffffffffffffffffffffff1684604051808373ffffffffffffffffffffffffffffffffffffffff1673ffffffffffffffffffffffffffffffffffffffff1681526020018281526020019250505060405180910390a16007600084815260200190815260200160002060009054906101000a900473ffffffffffffffffffffffffffffffffffffffff168391509150915091565b60006060806060806000806060600060011515601360008c815260200190815260200160002060090160009054906101000a900460ff16151514613ac357600080fd5b6000601360008c815260200190815260200160002090507f5a46ad3b3defcf81740125a7411094adce5ff60081145c33c74abd085f8b73bc81600001548260010183600201846003018560040186600501548760060154886007018960080154604051808a8152602001806020018060200180602001806020018981526020018881526020018060200187815260200186810386528e818154600181600116156101000203166002900481526020019150805460018160011615610100020316600290048015613bd45780601f10613ba957610100808354040283529160200191613bd4565b820191906000526020600020905b815481529060010190602001808311613bb757829003601f168201915b505086810385528d818154600181600116156101000203166002900481526020019150805460018160011615610100020316600290048015613c575780601f10613c2c57610100808354040283529160200191613c57565b820191906000526020600020905b815481529060010190602001808311613c3a57829003601f168201915b505086810384528c818154600181600116156101000203166002900481526020019150805460018160011615610100020316600290048015613cda5780601f10613caf57610100808354040283529160200191613cda565b820191906000526020600020905b815481529060010190602001808311613cbd57829003601f168201915b505086810383528b818154600181600116156101000203166002900481526020019150805460018160011615610100020316600290048015613d5d5780601f10613d3257610100808354040283529160200191613d5d565b820191906000526020600020905b815481529060010190602001808311613d4057829003601f168201915b5050868103825288818154600181600116156101000203166002900481526020019150805460018160011615610100020316600290048015613de05780601f10613db557610100808354040283529160200191613de0565b820191906000526020600020905b815481529060010190602001808311613dc357829003601f168201915b50509e50505050505050505050505050505060405180910390a180600001548160010182600201836003018460040185600501548660060154876007018860080154878054600181600116156101000203166002900480601f016020809104026020016040519081016040528092919081815260200182805460018160011615610100020316600290048015613eb75780601f10613e8c57610100808354040283529160200191613eb7565b820191906000526020600020905b815481529060010190602001808311613e9a57829003601f168201915b50505050509750868054600181600116156101000203166002900480601f016020809104026020016040519081016040528092919081815260200182805460018160011615610100020316600290048015613f535780601f10613f2857610100808354040283529160200191613f53565b820191906000526020600020905b815481529060010190602001808311613f3657829003601f168201915b50505050509650858054600181600116156101000203166002900480601f016020809104026020016040519081016040528092919081815260200182805460018160011615610100020316600290048015613fef5780601f10613fc457610100808354040283529160200191613fef565b820191906000526020600020905b815481529060010190602001808311613fd257829003601f168201915b50505050509550848054600181600116156101000203166002900480601f01602080910402602001604051908101604052809291908181526020018280546001816001161561010002031660029004801561408b5780601f106140605761010080835404028352916020019161408b565b820191906000526020600020905b81548152906001019060200180831161406e57829003601f168201915b50505050509450818054600181600116156101000203166002900480601f0160208091040260200160405190810160405280929190818152602001828054600181600116156101000203166002900480156141275780601f106140fc57610100808354040283529160200191614127565b820191906000526020600020905b81548152906001019060200180831161410a57829003601f168201915b50505050509150995099509950995099509950995099509950509193959799909294969850565b6000809054906101000a900473ffffffffffffffffffffffffffffffffffffffff1673ffffffffffffffffffffffffffffffffffffffff163373ffffffffffffffffffffffffffffffffffffffff16146141a757600080fd5b600073ffffffffffffffffffffffffffffffffffffffff166004600083815260200190815260200160002060009054906101000a900473ffffffffffffffffffffffffffffffffffffffff1673ffffffffffffffffffffffffffffffffffffffff16141561421457600080fd5b60018060006004600085815260200190815260200160002060009054906101000a900473ffffffffffffffffffffffffffffffffffffffff1673ffffffffffffffffffffffffffffffffffffffff1673ffffffffffffffffffffffffffffffffffffffff16815260200190815260200160002060006101000a81548160ff0219169083151502179055507fe9656384d3b384e8b9e5660b3ea278224b6bb242fe514ffed9c10cfb47cd92ec816004600084815260200190815260200160002060009054906101000a900473ffffffffffffffffffffffffffffffffffffffff16604051808381526020018273ffffffffffffffffffffffffffffffffffffffff1673ffffffffffffffffffffffffffffffffffffffff1681526020019250505060405180910390a150565b6000809054906101000a900473ffffffffffffffffffffffffffffffffffffffff1673ffffffffffffffffffffffffffffffffffffffff163373ffffffffffffffffffffffffffffffffffffffff161461439857600080fd5b600073ffffffffffffffffffffffffffffffffffffffff166007600083815260200190815260200160002060009054906101000a900473ffffffffffffffffffffffffffffffffffffffff1673ffffffffffffffffffffffffffffffffffffffff16141561440557600080fd5b6000600260006007600085815260200190815260200160002060009054906101000a900473ffffffffffffffffffffffffffffffffffffffff1673ffffffffffffffffffffffffffffffffffffffff1673ffffffffffffffffffffffffffffffffffffffff16815260200190815260200160002060006101000a81548160ff0219169083151502179055507fb5207379249aded524f44e4f1d2f1188e41d0b90acf547390e66aa9043e0e6b3816007600084815260200190815260200160002060009054906101000a900473ffffffffffffffffffffffffffffffffffffffff16604051808381526020018273ffffffffffffffffffffffffffffffffffffffff1673ffffffffffffffffffffffffffffffffffffffff1681526020019250505060405180910390a150565b60011515600360003373ffffffffffffffffffffffffffffffffffffffff1673ffffffffffffffffffffffffffffffffffffffff16815260200190815260200160002060070160009054906101000a900460ff1615151461459157600080fd5b60011515600160003373ffffffffffffffffffffffffffffffffffffffff1673ffffffffffffffffffffffffffffffffffffffff16815260200190815260200160002060009054906101000a900460ff161515146145ee57600080fd5b6040518061014001604052808a815260200189815260200188815260200187815260200186815260200185815260200184815260200183815260200182815260200160011515815250600960008201518160000155602082015181600101908051906020019061465f929190615901565b50604082015181600201908051906020019061467c929190615901565b506060820151816003019080519060200190614699929190615901565b5060808201518160040190805190602001906146b6929190615901565b5060a0820151816005015560c0820151816006015560e08201518160070190805190602001906146e7929190615901565b5061010082015181600801556101208201518160090160006101000a81548160ff0219169083151502179055509050506009601360008b8152602001908152602001600020600082015481600001556001820181600101908054600181600116156101000203166002900461475d929190615981565b5060028201816002019080546001816001161561010002031660029004614785929190615981565b50600382018160030190805460018160011615610100020316600290046147ad929190615981565b50600482018160040190805460018160011615610100020316600290046147d5929190615981565b50600582015481600501556006820154816006015560078201816007019080546001816001161561010002031660029004614811929190615981565b50600882015481600801556009820160009054906101000a900460ff168160090160006101000a81548160ff0219169083151502179055509050506014600082815260200190815260200160002060099080600181540180825580915050906001820390600052602060002090600a02016000909192909190915060008201548160000155600182018160010190805460018160011615610100020316600290046148bd929190615981565b50600282018160020190805460018160011615610100020316600290046148e5929190615981565b506003820181600301908054600181600116156101000203166002900461490d929190615981565b5060048201816004019080546001816001161561010002031660029004614935929190615981565b50600582015481600501556006820154816006015560078201816007019080546001816001161561010002031660029004614971929190615981565b50600882015481600801556009820160009054906101000a900460ff168160090160006101000a81548160ff0219169083151502179055505050506015600085815260200190815260200160002060099080600181540180825580915050906001820390600052602060002090600a0201600090919290919091506000820154816000015560018201816001019080546001816001161561010002031660029004614a1d929190615981565b5060028201816002019080546001816001161561010002031660029004614a45929190615981565b5060038201816003019080546001816001161561010002031660029004614a6d929190615981565b5060048201816004019080546001816001161561010002031660029004614a95929190615981565b50600582015481600501556006820154816006015560078201816007019080546001816001161561010002031660029004614ad1929190615981565b50600882015481600801556009820160009054906101000a900460ff168160090160006101000a81548160ff0219169083151502179055505050506015600084815260200190815260200160002060099080600181540180825580915050906001820390600052602060002090600a0201600090919290919091506000820154816000015560018201816001019080546001816001161561010002031660029004614b7d929190615981565b5060028201816002019080546001816001161561010002031660029004614ba5929190615981565b5060038201816003019080546001816001161561010002031660029004614bcd929190615981565b5060048201816004019080546001816001161561010002031660029004614bf5929190615981565b50600582015481600501556006820154816006015560078201816007019080546001816001161561010002031660029004614c31929190615981565b50600882015481600801556009820160009054906101000a900460ff168160090160006101000a81548160ff0219169083151502179055505050507f2eab53863aecc283622169dfb05aef957f305d4b79afa94c790dbc25db5beda0898989898989898989604051808a8152602001806020018060200180602001806020018981526020018881526020018060200187815260200186810386528e818151815260200191508051906020019080838360005b83811015614cfe578082015181840152602081019050614ce3565b50505050905090810190601f168015614d2b5780820380516001836020036101000a031916815260200191505b5086810385528d818151815260200191508051906020019080838360005b83811015614d64578082015181840152602081019050614d49565b50505050905090810190601f168015614d915780820380516001836020036101000a031916815260200191505b5086810384528c818151815260200191508051906020019080838360005b83811015614dca578082015181840152602081019050614daf565b50505050905090810190601f168015614df75780820380516001836020036101000a031916815260200191505b5086810383528b818151815260200191508051906020019080838360005b83811015614e30578082015181840152602081019050614e15565b50505050905090810190601f168015614e5d5780820380516001836020036101000a031916815260200191505b50868103825288818151815260200191508051906020019080838360005b83811015614e96578082015181840152602081019050614e7b565b50505050905090810190601f168015614ec35780820380516001836020036101000a031916815260200191505b509e50505050505050505050505050505060405180910390a1505050505050505050565b6008600087815260200190815260200160002060009054906101000a900460ff1615614f1257600080fd5b3373ffffffffffffffffffffffffffffffffffffffff168773ffffffffffffffffffffffffffffffffffffffff1614614f4a57600080fd5b866007600088815260200190815260200160002060006101000a81548173ffffffffffffffffffffffffffffffffffffffff021916908373ffffffffffffffffffffffffffffffffffffffff1602179055506040518061010001604052808873ffffffffffffffffffffffffffffffffffffffff16815260200187815260200186815260200185815260200184815260200183815260200182815260200160011515815250600660008973ffffffffffffffffffffffffffffffffffffffff1673ffffffffffffffffffffffffffffffffffffffff16815260200190815260200160002060008201518160000160006101000a81548173ffffffffffffffffffffffffffffffffffffffff021916908373ffffffffffffffffffffffffffffffffffffffff16021790555060208201518160010155604082015181600201908051906020019061509b929190615901565b5060608201518160030190805190602001906150b8929190615901565b5060808201518160040190805190602001906150d5929190615901565b5060a08201518160050190805190602001906150f2929190615901565b5060c082015181600601908051906020019061510f929190615901565b5060e08201518160070160006101000a81548160ff02191690831515021790555090505060016008600088815260200190815260200160002060006101000a81548160ff0219169083151502179055507f54613e574f4b2df398073d9c7540861241b23ff5f6f9b43c0ed48cb36ee951c887878787878787604051808873ffffffffffffffffffffffffffffffffffffffff1673ffffffffffffffffffffffffffffffffffffffff168152602001878152602001806020018060200180602001806020018060200186810386528b818151815260200191508051906020019080838360005b8381101561520f5780820151818401526020810190506151f4565b50505050905090810190601f16801561523c5780820380516001836020036101000a031916815260200191505b5086810385528a818151815260200191508051906020019080838360005b8381101561527557808201518184015260208101905061525a565b50505050905090810190601f1680156152a25780820380516001836020036101000a031916815260200191505b50868103845289818151815260200191508051906020019080838360005b838110156152db5780820151818401526020810190506152c0565b50505050905090810190601f1680156153085780820380516001836020036101000a031916815260200191505b50868103835288818151815260200191508051906020019080838360005b83811015615341578082015181840152602081019050615326565b50505050905090810190601f16801561536e5780820380516001836020036101000a031916815260200191505b50868103825287818151815260200191508051906020019080838360005b838110156153a757808201518184015260208101905061538c565b50505050905090810190601f1680156153d45780820380516001836020036101000a031916815260200191505b509c5050505050505050505050505060405180910390a150505050505050565b6005600087815260200190815260200160002060009054906101000a900460ff161561541f57600080fd5b3373ffffffffffffffffffffffffffffffffffffffff168773ffffffffffffffffffffffffffffffffffffffff161461545757600080fd5b866004600088815260200190815260200160002060006101000a81548173ffffffffffffffffffffffffffffffffffffffff021916908373ffffffffffffffffffffffffffffffffffffffff1602179055506040518061010001604052808873ffffffffffffffffffffffffffffffffffffffff16815260200187815260200186815260200185815260200184815260200183815260200182815260200160011515815250600360008973ffffffffffffffffffffffffffffffffffffffff1673ffffffffffffffffffffffffffffffffffffffff16815260200190815260200160002060008201518160000160006101000a81548173ffffffffffffffffffffffffffffffffffffffff021916908373ffffffffffffffffffffffffffffffffffffffff1602179055506020820151816001015560408201518160020190805190602001906155a8929190615901565b5060608201518160030190805190602001906155c5929190615901565b5060808201518160040190805190602001906155e2929190615901565b5060a08201518160050190805190602001906155ff929190615901565b5060c082015181600601908051906020019061561c929190615901565b5060e08201518160070160006101000a81548160ff02191690831515021790555090505060016005600088815260200190815260200160002060006101000a81548160ff0219169083151502179055507ff0990e66bc0969bba1d4e58eec056e3365cf407daf0334cab7dfcd10039e979b87878787878787604051808873ffffffffffffffffffffffffffffffffffffffff1673ffffffffffffffffffffffffffffffffffffffff168152602001878152602001806020018060200180602001806020018060200186810386528b818151815260200191508051906020019080838360005b8381101561571c578082015181840152602081019050615701565b50505050905090810190601f1680156157495780820380516001836020036101000a031916815260200191505b5086810385528a818151815260200191508051906020019080838360005b83811015615782578082015181840152602081019050615767565b50505050905090810190601f1680156157af5780820380516001836020036101000a031916815260200191505b50868103845289818151815260200191508051906020019080838360005b838110156157e85780820151818401526020810190506157cd565b50505050905090810190601f1680156158155780820380516001836020036101000a031916815260200191505b50868103835288818151815260200191508051906020019080838360005b8381101561584e578082015181840152602081019050615833565b50505050905090810190601f16801561587b5780820380516001836020036101000a031916815260200191505b50868103825287818151815260200191508051906020019080838360005b838110156158b4578082015181840152602081019050615899565b50505050905090810190601f1680156158e15780820380516001836020036101000a031916815260200191505b509c5050505050505050505050505060405180910390a150505050505050565b828054600181600116156101000203166002900490600052602060002090601f016020900481019282601f1061594257805160ff1916838001178555615970565b82800160010185558215615970579182015b8281111561596f578251825591602001919060010190615954565b5b50905061597d9190615a08565b5090565b828054600181600116156101000203166002900490600052602060002090601f016020900481019282601f106159ba57805485556159f7565b828001600101855582156159f757600052602060002091601f016020900482015b828111156159f65782548255916001019190600101906159db565b5b509050615a049190615a08565b5090565b615a2a91905b80821115615a26576000816000905550600101615a0e565b5090565b9056fea265627a7a7231582036d019c2dedb6c75c1bba608172ddcafffa448fcef2775fa47955b849bc37a8b64736f6c63430005100032",
  "source": "pragma solidity >=0.4.22 <0.7.0;\r\n\r\ncontract ContestRecord {\r\n    \r\n    address admin;\r\n    //sponsor\r\n    mapping(address => bool) authedSponer;\r\n    //team\r\n    mapping(address => bool) authedTeam;\r\n    \r\n    //sponsor\r\n    mapping(address => Sponsor) registeredSponor;\r\n    //sponsor addr->ID\r\n    mapping(uint => address) sIDtoAddress;\r\n    //sponsor\r\n    mapping(uint => bool) isResteredSponor;\r\n\r\n    //team\r\n    mapping(address => Team) registeredTeam;\r\n    //team addr->ID\r\n    mapping(uint => address) tIDtoAddress;\r\n    //team\r\n    mapping(uint => bool) isResteredTeam;\r\n\r\n\r\n    //record\r\n    Record tempRecord;\r\n    //rIDrecord\r\n    mapping(uint => Record) rIDtoRecord;\r\n    //sIDrecord\r\n    mapping(uint => Record[]) sIDtoRecord;\r\n    //tIDrecord\r\n    mapping(uint => Record[]) tIDtoRecord;\r\n    \r\n    //match\r\n    Match tempMatch;\r\n    //mIDmatch\r\n    mapping(uint => Match) mIDtoMatch;\r\n    //rIDmatch\r\n    mapping(uint => Match[]) rIDtoMatch;\r\n    //tIDmatch\r\n    mapping(uint => Match[]) tIDtoMatch;\r\n    \r\n    \r\n    //sponsor\r\n    struct Sponsor{\r\n        address sAccount;\r\n        uint sID;\r\n        string sName;\r\n        string sNation;\r\n        string sLocation;\r\n        string sEmail;\r\n        string sWeb;\r\n        bool sisActive;\r\n    }\r\n    \r\n    //team\r\n    struct Team{\r\n        address tAccount;\r\n        uint tID;\r\n        string tName;\r\n        string tNation;\r\n        string tLocation;\r\n        string tEmail;\r\n        string tWeb;\r\n        bool tisActive;\r\n    }\r\n    \r\n    \r\n    //record\r\n    struct Record {\r\n        uint rID;\r\n        string rGameName;\r\n        string rContestName;\r\n        string rTime;\r\n        string rLocation;\r\n        uint tIDa;\r\n        uint tIDb;\r\n        string rResult;\r\n        uint sID;\r\n        bool risActive;\r\n    }\r\n    \r\n    //match\r\n    struct Match{\r\n        uint mID;\r\n        uint rID;\r\n        uint tID;\r\n        string player;\r\n        string KDA;\r\n        string mResult;\r\n        string other;\r\n        bool misActive;\r\n        \r\n    }\r\n    \r\n    \r\n    \r\n    \r\n    //event\r\n    \r\n    // \r\n    //sponsor\r\n    event e_activeSponor(\r\n        uint sID, \r\n        address SponsorAddress);\r\n    \r\n    //sponsor\r\n    event e_freezeSponor(\r\n        uint sID, \r\n        address SponsorAddress);\r\n    \r\n    //team\r\n    event e_activeTeam(\r\n        uint tID,\r\n        address TeamAddress);\r\n\r\n    //team\r\n    event e_freezeTeam(\r\n        uint tID,\r\n        address TeamAddress);\r\n    \r\n     \r\n    //\r\n    //spons address\r\n    event e_getAddedSponorbyAddr(\r\n        address sAccount,\r\n        uint sID,\r\n        string sName,\r\n        string sNation,\r\n        string sLocation,\r\n        string sEmail,\r\n        string sWeb,\r\n        bool sisActive);\r\n        \r\n    //team address\r\n    event e_getAddedTeambyAddr(\r\n        address tAccount, \r\n        uint tID, \r\n        string tName, \r\n        string tNation, \r\n        string tLocation,\r\n        string tEmail, \r\n        string tWeb,\r\n        bool tisActive);\r\n        \r\n    \r\n    //sIDaddress\r\n    event e_getAddedSponorbysID(\r\n        address sAccount,\r\n        uint sID);\r\n        \r\n        \r\n    //tIDaddress\r\n    event e_getAddedTeambytID(\r\n        address tAccount,\r\n        uint tID);\r\n    \r\n    \r\n    //rID\r\n    event e_getAddedRecordbyrID(\r\n        uint rID, \r\n        string rGameName, \r\n        string rContestName, \r\n        string rTime, \r\n        string rLocation,\r\n        uint tIDa, \r\n        uint tIDb, \r\n        string rResult, \r\n        uint sID);\r\n    \r\n    //mID\r\n    event e_getAddedMatchbymID(\r\n        uint mID,\r\n        uint rID,\r\n        uint tID,\r\n        string player,\r\n        string KDA,\r\n        string mResult,\r\n        string other);\r\n    \r\n    \r\n    \r\n    \r\n    //\r\n    event e_addSponorInstance(\r\n        address newSponsorAddress, \r\n        uint sID, \r\n        string sName, \r\n        string sNation,\r\n        string sLocation,\r\n        string sEmail, \r\n        string sWeb);\r\n    //\r\n    event e_addRecord(\r\n        uint rID, \r\n        string rGameName, \r\n        string rContestName, \r\n        string rTime, \r\n        string rLocation,\r\n        uint tIDa, \r\n        uint tIDb, \r\n        string rResult, \r\n        uint sID);\r\n       \r\n\r\n    //team\r\n    event e_addTeamInstance(\r\n        address newTeamAddress, \r\n        uint tID, \r\n        string tName, \r\n        string tNation, \r\n        string tLocation,\r\n        string tEmail, \r\n        string tWeb);\r\n    //team\r\n    event e_addMatch(\r\n        uint mID,\r\n        uint rID,\r\n        uint tID,\r\n        string player,\r\n        string KDA,\r\n        string mResult,\r\n        string other);\r\n    \r\n    \r\n    \r\n    \r\n    \r\n    \r\n    \r\n    //\r\n    modifier onlyAdmin{\r\n        require(msg.sender == admin);\r\n        _;\r\n    }\r\n    \r\n    \r\n    \r\n    \r\n    \r\n    \r\n    ////\r\n    \r\n    //\r\n    function activeSponor(uint sID) public onlyAdmin{\r\n        //\r\n        require(sIDtoAddress[sID] != address(0));\r\n        //\r\n        authedSponer[sIDtoAddress[sID]] = true;\r\n        //event\r\n        emit e_activeSponor(sID, sIDtoAddress[sID]);\r\n    }\r\n    \r\n    \r\n    //\r\n    function freezeSponor(uint sID) public onlyAdmin{\r\n        //\r\n        require(sIDtoAddress[sID] != address(0));\r\n        //\r\n        authedSponer[sIDtoAddress[sID]] = false;\r\n        //event\r\n        emit e_activeSponor(sID, sIDtoAddress[sID]);\r\n    }\r\n    \r\n    \r\n    //\r\n    function activeTeam(uint tID) public onlyAdmin{\r\n        //\r\n        require(tIDtoAddress[tID] != address(0));\r\n        //\r\n        authedTeam[tIDtoAddress[tID]] = true;\r\n        //event\r\n        emit e_activeTeam(tID, tIDtoAddress[tID]);\r\n    }\r\n    \r\n    \r\n    //\r\n    function freezeTeam(uint tID) public onlyAdmin{\r\n        //\r\n        require(tIDtoAddress[tID] != address(0));\r\n        //\r\n        authedTeam[tIDtoAddress[tID]] = false;\r\n        //event\r\n        emit e_freezeTeam(tID, tIDtoAddress[tID]);\r\n    }\r\n    \r\n    \r\n    \r\n    \r\n    \r\n    \r\n    \r\n    \r\n    ////\r\n    //address\r\n    function getAddedSponorbyAddr(address SponsorAddress) public returns(\r\n        address sAccount, \r\n        uint sID, \r\n        string memory sName,\r\n        string memory sNation, \r\n        string memory sLocation,\r\n        string memory sEmail, \r\n        string memory sWeb, \r\n        bool sisActive){\r\n        \r\n        //sponsor\r\n        require(registeredSponor[SponsorAddress].sisActive == true);\r\n        //sponsor\r\n        Sponsor storage sponsor = registeredSponor[SponsorAddress];\r\n        \r\n        //event\r\n        emit e_getAddedSponorbyAddr(\r\n            SponsorAddress, \r\n            sponsor.sID, \r\n            sponsor.sName, \r\n            sponsor.sNation, \r\n            sponsor.sLocation,\r\n            sponsor.sEmail, \r\n            sponsor.sWeb, \r\n            sponsor.sisActive);\r\n        \r\n        //\r\n        return(\r\n            SponsorAddress, \r\n            sponsor.sID, \r\n            sponsor.sName, \r\n            sponsor.sNation, \r\n            sponsor.sLocation,\r\n            sponsor.sEmail, \r\n            sponsor.sWeb,\r\n            sponsor.sisActive);\r\n    }\r\n    \r\n    //address\r\n    function getAddedTeambyAddr(address TeamAddress) public returns(\r\n        address tAccount, \r\n        uint tID, \r\n        string memory tName, \r\n        string memory tNation, \r\n        string memory tLocation,\r\n        string memory tEmail, \r\n        string memory tWeb, \r\n        bool tisActive)  {\r\n            \r\n        //\r\n        require(registeredTeam[TeamAddress].tisActive == true);\r\n        \r\n        //\r\n        Team storage team = registeredTeam[TeamAddress];\r\n        \r\n        //event\r\n        emit e_getAddedTeambyAddr(\r\n            TeamAddress, \r\n            team.tID, \r\n            team.tName, \r\n            team.tNation, \r\n            team.tLocation,\r\n            team.tEmail, \r\n            team.tWeb, \r\n            team.tisActive);\r\n        \r\n        //\r\n        return(\r\n            TeamAddress, \r\n            team.tID,\r\n            team.tName, \r\n            team.tNation, \r\n            team.tLocation,\r\n            team.tEmail, \r\n            team.tWeb, \r\n            team.tisActive);\r\n    }\r\n    \r\n    \r\n    ////sIDaddress\r\n    function getAddedSponorbysID(uint _sID) public returns(\r\n        address sAccount,\r\n        uint sID){\r\n        require(sIDtoAddress[_sID] != address(0));\r\n        emit e_getAddedSponorbysID(\r\n            sIDtoAddress[_sID],\r\n            _sID);\r\n        return(\r\n            sIDtoAddress[_sID],\r\n            _sID);\r\n        }\r\n\r\n        \r\n        \r\n    //tIDaddress\r\n    function getAddedTeambytID(uint _tID) public returns(\r\n        address tAccount,\r\n        uint tID){\r\n        require(tIDtoAddress[_tID] != address(0));\r\n        emit e_getAddedTeambytID(\r\n            tIDtoAddress[_tID],\r\n            _tID);\r\n        return(\r\n            tIDtoAddress[_tID],\r\n            _tID);\r\n        }\r\n    \r\n    \r\n    //mIDrecord\r\n    function getAddedRecordbyrID(uint _rID) public returns(\r\n        uint rID, \r\n        string memory rGameName, \r\n        string memory rContestName,\r\n        string memory rTime, \r\n        string memory rLocation,\r\n        uint tIDa, \r\n        uint tIDb, \r\n        string memory rResult, \r\n        uint sID){\r\n        //record \r\n        require(rIDtoRecord[_rID].risActive == true);\r\n        //record\r\n        Record storage record = rIDtoRecord[_rID];\r\n        //event\r\n        emit e_getAddedRecordbyrID(\r\n            record.rID,\r\n            record.rGameName,\r\n            record.rContestName,\r\n            record.rTime,\r\n            record.rLocation,\r\n            record.tIDa,\r\n            record.tIDb,\r\n            record.rResult,\r\n            record.sID);\r\n        //\r\n        return(\r\n            record.rID,\r\n            record.rGameName,\r\n            record.rContestName,\r\n            record.rTime,\r\n            record.rLocation,\r\n            record.tIDa,\r\n            record.tIDb,\r\n            record.rResult,\r\n            record.sID);    \r\n        }\r\n    \r\n    //mID\r\n    function getAddedMatchbymID(uint _mID) public returns(\r\n        uint mID,\r\n        uint rID,\r\n        uint tID,\r\n        string memory player,\r\n        string memory KDA,\r\n        string memory mResult,\r\n        string memory other){\r\n        // \r\n        require(mIDtoMatch[_mID].misActive == true);\r\n        //match\r\n        Match storage m = mIDtoMatch[_mID];\r\n        //event\r\n        emit e_getAddedMatchbymID(\r\n            m.mID,\r\n            m.rID,\r\n            m.tID,\r\n            m.player,\r\n            m.KDA,\r\n            m.mResult,\r\n            m.other);\r\n        //\r\n        return(\r\n            m.mID,\r\n            m.rID,\r\n            m.tID,\r\n            m.player,\r\n            m.KDA,\r\n            m.mResult,\r\n            m.other);    \r\n        }\r\n    \r\n    \r\n    \r\n   ////\r\n    //\r\n    function addSponorInstance(\r\n        address newSponsorAddress, \r\n        uint sID, \r\n        string memory sName, \r\n        string memory sNation,\r\n        string memory sLocation,\r\n        string memory sEmail, \r\n        string memory sWeb) public {\r\n            \r\n        //\r\n        require(!isResteredSponor[sID]);\r\n        //\r\n        require(newSponsorAddress == msg.sender);\r\n        //IDaddress\r\n        sIDtoAddress[sID] = newSponsorAddress;\r\n        //\r\n        registeredSponor[newSponsorAddress] = Sponsor({\r\n            sAccount : newSponsorAddress,\r\n            sID : sID, \r\n            sName : sName, \r\n            sNation : sNation, \r\n            sLocation : sLocation,\r\n            sEmail : sEmail, \r\n            sWeb :sWeb, \r\n            sisActive : true});\r\n        isResteredSponor[sID] = true;\r\n        //event\r\n        emit e_addSponorInstance(\r\n            newSponsorAddress, \r\n            sID, \r\n            sName, \r\n            sNation, \r\n            sLocation,\r\n            sEmail, \r\n            sWeb);\r\n    }\r\n\r\n\r\n    //\r\n    function addRecord(\r\n        uint rID, \r\n        string memory rGameName, \r\n        string memory rContestName,\r\n        string memory rTime, \r\n        string memory rLocation,\r\n        uint tIDa, \r\n        uint tIDb, \r\n        string memory rResult, \r\n        uint sID) public{\r\n        //\r\n        require(registeredSponor[msg.sender].sisActive == true);\r\n        //\r\n        require(authedSponer[msg.sender] == true);\r\n        \r\n        //\r\n        tempRecord = Record({\r\n            rID : rID, \r\n            rGameName : rGameName, \r\n            rContestName :rContestName, \r\n            rTime : rTime, \r\n            rLocation : rLocation,\r\n            tIDa : tIDa, \r\n            tIDb : tIDb, \r\n            rResult : rResult, \r\n            sID : sID, \r\n            risActive : true});\r\n        //rID\r\n        rIDtoRecord[rID] = tempRecord;\r\n        //sID\r\n        sIDtoRecord[sID].push(tempRecord);\r\n        //tID\r\n        tIDtoRecord[tIDa].push(tempRecord);\r\n        tIDtoRecord[tIDb].push(tempRecord);\r\n        \r\n        emit e_addRecord(\r\n            rID, \r\n            rGameName, \r\n            rContestName, \r\n            rTime, \r\n            rLocation,\r\n            tIDa,\r\n            tIDb, \r\n            rResult, \r\n            sID);\r\n    }\r\n        \r\n        \r\n        \r\n    ////Team\r\n    //\r\n    function addTeamInstance(\r\n        address newTeamAddress, \r\n        uint tID, \r\n        string memory tName, \r\n        string memory tNation, \r\n        string memory tLocation,\r\n        string memory tEmail, \r\n        string memory tWeb) public {\r\n        //\r\n        require(!isResteredTeam[tID]);\r\n        //\r\n        require(newTeamAddress == msg.sender);\r\n        //IDaddress\r\n        tIDtoAddress[tID] = newTeamAddress;\r\n        //\r\n        registeredTeam[newTeamAddress] = Team({\r\n            tAccount : newTeamAddress,\r\n            tID : tID, \r\n            tName : tName, \r\n            tNation : tNation, \r\n            tLocation : tLocation,\r\n            tEmail : tEmail, \r\n            tWeb :tWeb, \r\n            tisActive : true});  \r\n        isResteredTeam[tID] = true;\r\n        //event\r\n        emit e_addTeamInstance(\r\n            newTeamAddress, \r\n            tID, \r\n            tName ,\r\n            tNation, \r\n            tLocation,\r\n            tEmail, \r\n            tWeb);\r\n        }\r\n        \r\n    \r\n    //team\r\n    function addMatch(\r\n        uint mID,\r\n        uint rID,\r\n        uint tID,\r\n        string memory player,\r\n        string memory KDA,\r\n        string memory mResult,\r\n        string memory other) public{\r\n        //team\r\n        require(registeredTeam[msg.sender].tisActive == true);\r\n        require(authedTeam[msg.sender] == true);\r\n        \r\n        //\r\n        tempMatch = Match({\r\n            mID : mID,\r\n            rID : rID,\r\n            tID : tID,\r\n            player : player,\r\n            KDA : KDA,\r\n            mResult : mResult,\r\n            other : other,\r\n            misActive : true});\r\n        //mID\r\n        mIDtoMatch[mID] = tempMatch;\r\n        //teamtID\r\n        tIDtoMatch[tID].push(tempMatch);\r\n        //rID\r\n        rIDtoMatch[rID].push(tempMatch);\r\n        \r\n        emit e_addMatch(\r\n            mID,\r\n            rID,\r\n            tID,\r\n            player,\r\n            KDA,\r\n            mResult,\r\n            other);\r\n    }    \r\n\r\n\r\n}",
  "sourcePath": "D:\\eSportRecord\\contracts\\record.sol",
  "compiler": {
    "name": "solc",
    "version": "0.5.16+commit.9c3226ce.Emscripten.clang"
  },
  "schemaVersion": "3.0.23",
  "updatedAt": "2020-05-10T05:27:45.936Z",
  "networkType": "ethereum",
  "devdoc": {
    "methods": {}
  },
  "userdoc": {
    "methods": {
      "activeSponor(uint256)": {
        "notice": "/"
      },
      "addSponorInstance(address,uint256,string,string,string,string,string)": {
        "notice": "/"
      },
      "addTeamInstance(address,uint256,string,string,string,string,string)": {
        "notice": "/Team"
      },
      "getAddedSponorbyAddr(address)": {
        "notice": "/"
      },
      "getAddedSponorbysID(uint256)": {
        "notice": "/sIDaddress"
      }
    }
  }
}