{
  "contractName": "UserContract",
  "abi": [
    {
      "anonymous": false,
      "inputs": [
        {
          "indexed": false,
          "internalType": "address",
          "name": "newUserAddress",
          "type": "address"
        },
        {
          "indexed": false,
          "internalType": "uint256",
          "name": "uID",
          "type": "uint256"
        },
        {
          "indexed": false,
          "internalType": "string",
          "name": "uName",
          "type": "string"
        },
        {
          "indexed": false,
          "internalType": "string",
          "name": "uGender",
          "type": "string"
        },
        {
          "indexed": false,
          "internalType": "string",
          "name": "uBirth",
          "type": "string"
        },
        {
          "indexed": false,
          "internalType": "string",
          "name": "uNation",
          "type": "string"
        }
      ],
      "name": "e_addUser",
      "type": "event"
    },
    {
      "anonymous": false,
      "inputs": [
        {
          "indexed": false,
          "internalType": "uint256",
          "name": "uID",
          "type": "uint256"
        },
        {
          "indexed": false,
          "internalType": "string",
          "name": "uName",
          "type": "string"
        },
        {
          "indexed": false,
          "internalType": "string",
          "name": "uGender",
          "type": "string"
        },
        {
          "indexed": false,
          "internalType": "string",
          "name": "uBirth",
          "type": "string"
        },
        {
          "indexed": false,
          "internalType": "string",
          "name": "uNation",
          "type": "string"
        }
      ],
      "name": "e_addUser",
      "type": "event"
    },
    {
      "anonymous": false,
      "inputs": [
        {
          "indexed": false,
          "internalType": "address",
          "name": "uAccount",
          "type": "address"
        },
        {
          "indexed": false,
          "internalType": "uint256",
          "name": "uID",
          "type": "uint256"
        },
        {
          "indexed": false,
          "internalType": "string",
          "name": "uName",
          "type": "string"
        },
        {
          "indexed": false,
          "internalType": "string",
          "name": "uGender",
          "type": "string"
        },
        {
          "indexed": false,
          "internalType": "string",
          "name": "uBirth",
          "type": "string"
        },
        {
          "indexed": false,
          "internalType": "string",
          "name": "uNation",
          "type": "string"
        }
      ],
      "name": "e_getAddedUserbyAddr",
      "type": "event"
    },
    {
      "anonymous": false,
      "inputs": [
        {
          "indexed": false,
          "internalType": "address",
          "name": "uAccount",
          "type": "address"
        },
        {
          "indexed": false,
          "internalType": "uint256",
          "name": "uID",
          "type": "uint256"
        },
        {
          "indexed": false,
          "internalType": "string",
          "name": "uName",
          "type": "string"
        },
        {
          "indexed": false,
          "internalType": "string",
          "name": "uGender",
          "type": "string"
        },
        {
          "indexed": false,
          "internalType": "string",
          "name": "uBirth",
          "type": "string"
        },
        {
          "indexed": false,
          "internalType": "string",
          "name": "uNation",
          "type": "string"
        }
      ],
      "name": "e_getAddedUserbyuID",
      "type": "event"
    },
    {
      "constant": false,
      "inputs": [
        {
          "internalType": "address",
          "name": "UserAddress",
          "type": "address"
        }
      ],
      "name": "getAddedUserbyAddr",
      "outputs": [
        {
          "internalType": "address",
          "name": "uAccount",
          "type": "address"
        },
        {
          "internalType": "uint256",
          "name": "uID",
          "type": "uint256"
        },
        {
          "internalType": "string",
          "name": "uName",
          "type": "string"
        },
        {
          "internalType": "string",
          "name": "uGender",
          "type": "string"
        },
        {
          "internalType": "string",
          "name": "uBirth",
          "type": "string"
        },
        {
          "internalType": "string",
          "name": "uNation",
          "type": "string"
        }
      ],
      "payable": false,
      "stateMutability": "nonpayable",
      "type": "function"
    },
    {
      "constant": false,
      "inputs": [
        {
          "internalType": "uint256",
          "name": "userID",
          "type": "uint256"
        }
      ],
      "name": "getAddedUserbyuID",
      "outputs": [
        {
          "internalType": "address",
          "name": "uAccount",
          "type": "address"
        },
        {
          "internalType": "uint256",
          "name": "uID",
          "type": "uint256"
        },
        {
          "internalType": "string",
          "name": "uName",
          "type": "string"
        },
        {
          "internalType": "string",
          "name": "uGender",
          "type": "string"
        },
        {
          "internalType": "string",
          "name": "uBirth",
          "type": "string"
        },
        {
          "internalType": "string",
          "name": "uNation",
          "type": "string"
        }
      ],
      "payable": false,
      "stateMutability": "nonpayable",
      "type": "function"
    },
    {
      "constant": false,
      "inputs": [
        {
          "internalType": "address",
          "name": "newUserAddress",
          "type": "address"
        },
        {
          "internalType": "uint256",
          "name": "uID",
          "type": "uint256"
        },
        {
          "internalType": "string",
          "name": "uName",
          "type": "string"
        },
        {
          "internalType": "string",
          "name": "uGender",
          "type": "string"
        },
        {
          "internalType": "string",
          "name": "uBirth",
          "type": "string"
        },
        {
          "internalType": "string",
          "name": "uNation",
          "type": "string"
        }
      ],
      "name": "addUser",
      "outputs": [],
      "payable": false,
      "stateMutability": "nonpayable",
      "type": "function"
    },
    {
      "constant": false,
      "inputs": [
        {
          "internalType": "uint256",
          "name": "_uID",
          "type": "uint256"
        }
      ],
      "name": "getUserInfo",
      "outputs": [
        {
          "internalType": "uint256",
          "name": "uID",
          "type": "uint256"
        },
        {
          "internalType": "string",
          "name": "uName",
          "type": "string"
        },
        {
          "internalType": "string",
          "name": "uGender",
          "type": "string"
        },
        {
          "internalType": "string",
          "name": "uBirth",
          "type": "string"
        },
        {
          "internalType": "string",
          "name": "uNation",
          "type": "string"
        }
      ],
      "payable": false,
      "stateMutability": "nonpayable",
      "type": "function"
    }
  ],
  "bytecode": "0x608060405234801561001057600080fd5b50612154806100206000396000f3fe608060405234801561001057600080fd5b506004361061004c5760003560e01c806339c0c430146100515780635f8f96e7146102765780636da1382914610520578063d379dadf1461075b575b600080fd5b61007d6004803603602081101561006757600080fd5b810190808035906020019092919050505061094d565b604051808773ffffffffffffffffffffffffffffffffffffffff1673ffffffffffffffffffffffffffffffffffffffff16815260200186815260200180602001806020018060200180602001858103855289818151815260200191508051906020019080838360005b838110156101015780820151818401526020810190506100e6565b50505050905090810190601f16801561012e5780820380516001836020036101000a031916815260200191505b50858103845288818151815260200191508051906020019080838360005b8381101561016757808201518184015260208101905061014c565b50505050905090810190601f1680156101945780820380516001836020036101000a031916815260200191505b50858103835287818151815260200191508051906020019080838360005b838110156101cd5780820151818401526020810190506101b2565b50505050905090810190601f1680156101fa5780820380516001836020036101000a031916815260200191505b50858103825286818151815260200191508051906020019080838360005b83811015610233578082015181840152602081019050610218565b50505050905090810190601f1680156102605780820380516001836020036101000a031916815260200191505b509a505050505050505050505060405180910390f35b61051e600480360360c081101561028c57600080fd5b81019080803573ffffffffffffffffffffffffffffffffffffffff16906020019092919080359060200190929190803590602001906401000000008111156102d357600080fd5b8201836020820111156102e557600080fd5b8035906020019184600183028401116401000000008311171561030757600080fd5b91908080601f016020809104026020016040519081016040528093929190818152602001838380828437600081840152601f19601f8201169050808301925050505050505091929192908035906020019064010000000081111561036a57600080fd5b82018360208201111561037c57600080fd5b8035906020019184600183028401116401000000008311171561039e57600080fd5b91908080601f016020809104026020016040519081016040528093929190818152602001838380828437600081840152601f19601f8201169050808301925050505050505091929192908035906020019064010000000081111561040157600080fd5b82018360208201111561041357600080fd5b8035906020019184600183028401116401000000008311171561043557600080fd5b91908080601f016020809104026020016040519081016040528093929190818152602001838380828437600081840152601f19601f8201169050808301925050505050505091929192908035906020019064010000000081111561049857600080fd5b8201836020820111156104aa57600080fd5b803590602001918460018302840111640100000000831117156104cc57600080fd5b91908080601f016020809104026020016040519081016040528093929190818152602001838380828437600081840152601f19601f820116905080830192505050505050509192919290505050610ffd565b005b6105626004803603602081101561053657600080fd5b81019080803573ffffffffffffffffffffffffffffffffffffffff169060200190929190505050611478565b604051808773ffffffffffffffffffffffffffffffffffffffff1673ffffffffffffffffffffffffffffffffffffffff16815260200186815260200180602001806020018060200180602001858103855289818151815260200191508051906020019080838360005b838110156105e65780820151818401526020810190506105cb565b50505050905090810190601f1680156106135780820380516001836020036101000a031916815260200191505b50858103845288818151815260200191508051906020019080838360005b8381101561064c578082015181840152602081019050610631565b50505050905090810190601f1680156106795780820380516001836020036101000a031916815260200191505b50858103835287818151815260200191508051906020019080838360005b838110156106b2578082015181840152602081019050610697565b50505050905090810190601f1680156106df5780820380516001836020036101000a031916815260200191505b50858103825286818151815260200191508051906020019080838360005b838110156107185780820151818401526020810190506106fd565b50505050905090810190601f1680156107455780820380516001836020036101000a031916815260200191505b509a505050505050505050505060405180910390f35b6107876004803603602081101561077157600080fd5b8101908080359060200190929190505050611abc565b6040518086815260200180602001806020018060200180602001858103855289818151815260200191508051906020019080838360005b838110156107d95780820151818401526020810190506107be565b50505050905090810190601f1680156108065780820380516001836020036101000a031916815260200191505b50858103845288818151815260200191508051906020019080838360005b8381101561083f578082015181840152602081019050610824565b50505050905090810190601f16801561086c5780820380516001836020036101000a031916815260200191505b50858103835287818151815260200191508051906020019080838360005b838110156108a557808201518184015260208101905061088a565b50505050905090810190601f1680156108d25780820380516001836020036101000a031916815260200191505b50858103825286818151815260200191508051906020019080838360005b8381101561090b5780820151818401526020810190506108f0565b50505050905090810190601f1680156109385780820380516001836020036101000a031916815260200191505b50995050505050505050505060405180910390f35b6000806060806060806000809054906101000a900473ffffffffffffffffffffffffffffffffffffffff1673ffffffffffffffffffffffffffffffffffffffff163373ffffffffffffffffffffffffffffffffffffffff16146109af57600080fd5b6001151560016000600260008b815260200190815260200160002060009054906101000a900473ffffffffffffffffffffffffffffffffffffffff1673ffffffffffffffffffffffffffffffffffffffff1673ffffffffffffffffffffffffffffffffffffffff16815260200190815260200160002060060160009054906101000a900460ff16151514610a4257600080fd5b60006002600089815260200190815260200160002060009054906101000a900473ffffffffffffffffffffffffffffffffffffffff1690506000600160008373ffffffffffffffffffffffffffffffffffffffff1673ffffffffffffffffffffffffffffffffffffffff16815260200190815260200160002090507ff30107772591a25342bfd69ec2d3dc7ccf9e727d387d4a0246c76000c6443c3a82826001015483600201846003018560040186600501604051808773ffffffffffffffffffffffffffffffffffffffff1673ffffffffffffffffffffffffffffffffffffffff16815260200186815260200180602001806020018060200180602001858103855289818154600181600116156101000203166002900481526020019150805460018160011615610100020316600290048015610bc15780601f10610b9657610100808354040283529160200191610bc1565b820191906000526020600020905b815481529060010190602001808311610ba457829003601f168201915b5050858103845288818154600181600116156101000203166002900481526020019150805460018160011615610100020316600290048015610c445780601f10610c1957610100808354040283529160200191610c44565b820191906000526020600020905b815481529060010190602001808311610c2757829003601f168201915b5050858103835287818154600181600116156101000203166002900481526020019150805460018160011615610100020316600290048015610cc75780601f10610c9c57610100808354040283529160200191610cc7565b820191906000526020600020905b815481529060010190602001808311610caa57829003601f168201915b5050858103825286818154600181600116156101000203166002900481526020019150805460018160011615610100020316600290048015610d4a5780601f10610d1f57610100808354040283529160200191610d4a565b820191906000526020600020905b815481529060010190602001808311610d2d57829003601f168201915b50509a505050505050505050505060405180910390a181816001015482600201836003018460040185600501838054600181600116156101000203166002900480601f016020809104026020016040519081016040528092919081815260200182805460018160011615610100020316600290048015610e0b5780601f10610de057610100808354040283529160200191610e0b565b820191906000526020600020905b815481529060010190602001808311610dee57829003601f168201915b50505050509350828054600181600116156101000203166002900480601f016020809104026020016040519081016040528092919081815260200182805460018160011615610100020316600290048015610ea75780601f10610e7c57610100808354040283529160200191610ea7565b820191906000526020600020905b815481529060010190602001808311610e8a57829003601f168201915b50505050509250818054600181600116156101000203166002900480601f016020809104026020016040519081016040528092919081815260200182805460018160011615610100020316600290048015610f435780601f10610f1857610100808354040283529160200191610f43565b820191906000526020600020905b815481529060010190602001808311610f2657829003601f168201915b50505050509150808054600181600116156101000203166002900480601f016020809104026020016040519081016040528092919081815260200182805460018160011615610100020316600290048015610fdf5780601f10610fb457610100808354040283529160200191610fdf565b820191906000526020600020905b815481529060010190602001808311610fc257829003601f168201915b50505050509050975097509750975097509750505091939550919395565b6003600086815260200190815260200160002060009054906101000a900460ff161561102857600080fd5b3373ffffffffffffffffffffffffffffffffffffffff168673ffffffffffffffffffffffffffffffffffffffff161461106057600080fd5b856002600087815260200190815260200160002060006101000a81548173ffffffffffffffffffffffffffffffffffffffff021916908373ffffffffffffffffffffffffffffffffffffffff1602179055506040518060e001604052808773ffffffffffffffffffffffffffffffffffffffff16815260200186815260200185815260200184815260200183815260200182815260200160011515815250600160008873ffffffffffffffffffffffffffffffffffffffff1673ffffffffffffffffffffffffffffffffffffffff16815260200190815260200160002060008201518160000160006101000a81548173ffffffffffffffffffffffffffffffffffffffff021916908373ffffffffffffffffffffffffffffffffffffffff1602179055506020820151816001015560408201518160020190805190602001906111aa92919061207a565b5060608201518160030190805190602001906111c792919061207a565b5060808201518160040190805190602001906111e492919061207a565b5060a082015181600501908051906020019061120192919061207a565b5060c08201518160060160006101000a81548160ff02191690831515021790555090505060016003600087815260200190815260200160002060006101000a81548160ff0219169083151502179055507f704937d1c6c436d5b4244fea4da3a9b3617d148f50ef4142d7433b76d25b4820868686868686604051808773ffffffffffffffffffffffffffffffffffffffff1673ffffffffffffffffffffffffffffffffffffffff16815260200186815260200180602001806020018060200180602001858103855289818151815260200191508051906020019080838360005b838110156112fc5780820151818401526020810190506112e1565b50505050905090810190601f1680156113295780820380516001836020036101000a031916815260200191505b50858103845288818151815260200191508051906020019080838360005b83811015611362578082015181840152602081019050611347565b50505050905090810190601f16801561138f5780820380516001836020036101000a031916815260200191505b50858103835287818151815260200191508051906020019080838360005b838110156113c85780820151818401526020810190506113ad565b50505050905090810190601f1680156113f55780820380516001836020036101000a031916815260200191505b50858103825286818151815260200191508051906020019080838360005b8381101561142e578082015181840152602081019050611413565b50505050905090810190601f16801561145b5780820380516001836020036101000a031916815260200191505b509a505050505050505050505060405180910390a1505050505050565b6000806060806060806000809054906101000a900473ffffffffffffffffffffffffffffffffffffffff1673ffffffffffffffffffffffffffffffffffffffff163373ffffffffffffffffffffffffffffffffffffffff16146114da57600080fd5b60011515600160008973ffffffffffffffffffffffffffffffffffffffff1673ffffffffffffffffffffffffffffffffffffffff16815260200190815260200160002060060160009054906101000a900460ff1615151461153a57600080fd5b6000600160008973ffffffffffffffffffffffffffffffffffffffff1673ffffffffffffffffffffffffffffffffffffffff16815260200190815260200160002090507fd4657c1b742966b088e65d93a1231839fd487d41f857007c8f72132badd36ecd88826001015483600201846003018560040186600501604051808773ffffffffffffffffffffffffffffffffffffffff1673ffffffffffffffffffffffffffffffffffffffff168152602001868152602001806020018060200180602001806020018581038552898181546001816001161561010002031660029004815260200191508054600181600116156101000203166002900480156116815780601f1061165657610100808354040283529160200191611681565b820191906000526020600020905b81548152906001019060200180831161166457829003601f168201915b50508581038452888181546001816001161561010002031660029004815260200191508054600181600116156101000203166002900480156117045780601f106116d957610100808354040283529160200191611704565b820191906000526020600020905b8154815290600101906020018083116116e757829003601f168201915b50508581038352878181546001816001161561010002031660029004815260200191508054600181600116156101000203166002900480156117875780601f1061175c57610100808354040283529160200191611787565b820191906000526020600020905b81548152906001019060200180831161176a57829003601f168201915b505085810382528681815460018160011615610100020316600290048152602001915080546001816001161561010002031660029004801561180a5780601f106117df5761010080835404028352916020019161180a565b820191906000526020600020905b8154815290600101906020018083116117ed57829003601f168201915b50509a505050505050505050505060405180910390a187816001015482600201836003018460040185600501838054600181600116156101000203166002900480601f0160208091040260200160405190810160405280929190818152602001828054600181600116156101000203166002900480156118cb5780601f106118a0576101008083540402835291602001916118cb565b820191906000526020600020905b8154815290600101906020018083116118ae57829003601f168201915b50505050509350828054600181600116156101000203166002900480601f0160208091040260200160405190810160405280929190818152602001828054600181600116156101000203166002900480156119675780601f1061193c57610100808354040283529160200191611967565b820191906000526020600020905b81548152906001019060200180831161194a57829003601f168201915b50505050509250818054600181600116156101000203166002900480601f016020809104026020016040519081016040528092919081815260200182805460018160011615610100020316600290048015611a035780601f106119d857610100808354040283529160200191611a03565b820191906000526020600020905b8154815290600101906020018083116119e657829003601f168201915b50505050509150808054600181600116156101000203166002900480601f016020809104026020016040519081016040528092919081815260200182805460018160011615610100020316600290048015611a9f5780601f10611a7457610100808354040283529160200191611a9f565b820191906000526020600020905b815481529060010190602001808311611a8257829003601f168201915b505050505090509650965096509650965096505091939550919395565b60006060806060803373ffffffffffffffffffffffffffffffffffffffff166002600088815260200190815260200160002060009054906101000a900473ffffffffffffffffffffffffffffffffffffffff1673ffffffffffffffffffffffffffffffffffffffff1614611b2f57600080fd5b6000600160003373ffffffffffffffffffffffffffffffffffffffff1673ffffffffffffffffffffffffffffffffffffffff16815260200190815260200160002090507fa50d6272a8cfcb1b1ab01362f9dc135561fb41d60d8ae748e7ba61a56a55d6928160010154826002018360030184600401856005016040518086815260200180602001806020018060200180602001858103855289818154600181600116156101000203166002900481526020019150805460018160011615610100020316600290048015611c435780601f10611c1857610100808354040283529160200191611c43565b820191906000526020600020905b815481529060010190602001808311611c2657829003601f168201915b5050858103845288818154600181600116156101000203166002900481526020019150805460018160011615610100020316600290048015611cc65780601f10611c9b57610100808354040283529160200191611cc6565b820191906000526020600020905b815481529060010190602001808311611ca957829003601f168201915b5050858103835287818154600181600116156101000203166002900481526020019150805460018160011615610100020316600290048015611d495780601f10611d1e57610100808354040283529160200191611d49565b820191906000526020600020905b815481529060010190602001808311611d2c57829003601f168201915b5050858103825286818154600181600116156101000203166002900481526020019150805460018160011615610100020316600290048015611dcc5780601f10611da157610100808354040283529160200191611dcc565b820191906000526020600020905b815481529060010190602001808311611daf57829003601f168201915b5050995050505050505050505060405180910390a1806001015481600201826003018360040184600501838054600181600116156101000203166002900480601f016020809104026020016040519081016040528092919081815260200182805460018160011615610100020316600290048015611e8b5780601f10611e6057610100808354040283529160200191611e8b565b820191906000526020600020905b815481529060010190602001808311611e6e57829003601f168201915b50505050509350828054600181600116156101000203166002900480601f016020809104026020016040519081016040528092919081815260200182805460018160011615610100020316600290048015611f275780601f10611efc57610100808354040283529160200191611f27565b820191906000526020600020905b815481529060010190602001808311611f0a57829003601f168201915b50505050509250818054600181600116156101000203166002900480601f016020809104026020016040519081016040528092919081815260200182805460018160011615610100020316600290048015611fc35780601f10611f9857610100808354040283529160200191611fc3565b820191906000526020600020905b815481529060010190602001808311611fa657829003601f168201915b50505050509150808054600181600116156101000203166002900480601f01602080910402602001604051908101604052809291908181526020018280546001816001161561010002031660029004801561205f5780601f106120345761010080835404028352916020019161205f565b820191906000526020600020905b81548152906001019060200180831161204257829003601f168201915b50505050509050955095509550955095505091939590929450565b828054600181600116156101000203166002900490600052602060002090601f016020900481019282601f106120bb57805160ff19168380011785556120e9565b828001600101855582156120e9579182015b828111156120e85782518255916020019190600101906120cd565b5b5090506120f691906120fa565b5090565b61211c91905b80821115612118576000816000905550600101612100565b5090565b9056fea265627a7a72315820fdc1817a874a97d581dc54e6ec8959de2bb13dc6c31f4e61ef98ffba1090e9ba64736f6c63430005100032",
  "source": "pragma solidity >=0.4.22 <0.7.0;\r\n\r\ncontract UserContract{\r\n    \r\n    address admin;\r\n    \r\n    \r\n    //user\r\n    mapping(address => User) registeredUser;\r\n    //user addr->ID\r\n    mapping(uint => address) uIDtoAddress;\r\n    //user\r\n    mapping(uint => bool) isResteredUser;\r\n    \r\n    \r\n    //\r\n    struct User{\r\n        address uAccount;\r\n        uint uID;\r\n        string uName;\r\n        string uGender;\r\n        string uBirth;\r\n        string uNation;\r\n        bool uisActive;\r\n    }\r\n    \r\n    \r\n    //address\r\n    event e_getAddedUserbyAddr(\r\n        address uAccount,\r\n        uint uID,\r\n        string uName,\r\n        string uGender,\r\n        string uBirth,\r\n        string uNation);\r\n    //ID   \r\n    event e_getAddedUserbyuID(\r\n        address uAccount,\r\n        uint uID,\r\n        string uName,\r\n        string uGender,\r\n        string uBirth,\r\n        string uNation);\r\n    \r\n    \r\n    //\r\n    event e_addUser(\r\n        address newUserAddress,\r\n        uint uID, \r\n        string uName, \r\n        string uGender, \r\n        string uBirth,\r\n        string uNation);\r\n    //\r\n    event e_addUser(\r\n        uint uID, \r\n        string uName, \r\n        string uGender, \r\n        string uBirth,\r\n        string uNation);\r\n    \r\n    //\r\n    modifier onlyAdmin{\r\n        require(msg.sender == admin);\r\n        _;\r\n    }\r\n    \r\n    \r\n    //user\r\n    function getAddedUserbyAddr(address UserAddress) public  onlyAdmin  returns(\r\n        address uAccount,\r\n        uint uID,\r\n        string memory uName,\r\n        string memory uGender,\r\n        string memory uBirth,\r\n        string memory uNation) {\r\n        \r\n        //\r\n        require(registeredUser[UserAddress].uisActive == true);\r\n        //\r\n        User storage user = registeredUser[UserAddress];\r\n        \r\n        //event\r\n        emit e_getAddedUserbyAddr(\r\n            UserAddress,\r\n            user.uID,\r\n            user.uName,\r\n            user.uGender,\r\n            user.uBirth,\r\n            user.uNation);\r\n        \r\n        //\r\n        return(\r\n            UserAddress,\r\n            user.uID,\r\n            user.uName,\r\n            user.uGender,\r\n            user.uBirth,\r\n            user.uNation);\r\n    }\r\n    \r\n    //user\r\n    function getAddedUserbyuID(uint userID) public onlyAdmin returns(\r\n        address uAccount,\r\n        uint uID,\r\n        string memory uName,\r\n        string memory uGender,\r\n        string memory uBirth,\r\n        string memory uNation) {\r\n        \r\n        //\r\n        require(registeredUser[uIDtoAddress[userID]].uisActive == true);\r\n        //\r\n        address UserAddressbyuID = uIDtoAddress[userID];\r\n        User storage user = registeredUser[UserAddressbyuID];\r\n        \r\n        //event\r\n        emit e_getAddedUserbyuID(\r\n            UserAddressbyuID,\r\n            user.uID,\r\n            user.uName,\r\n            user.uGender,\r\n            user.uBirth,\r\n            user.uNation);\r\n        \r\n        //\r\n        return(\r\n            UserAddressbyuID,\r\n            user.uID,\r\n            user.uName,\r\n            user.uGender,\r\n            user.uBirth,\r\n            user.uNation);\r\n    }\r\n    \r\n    \r\n    ////User\r\n    //User\r\n    function addUser(\r\n        address newUserAddress,\r\n        uint uID, \r\n        string memory uName, \r\n        string memory uGender, \r\n        string memory uBirth,\r\n        string memory uNation) public{\r\n            \r\n        //\r\n        require(!isResteredUser[uID]);\r\n        require(newUserAddress == msg.sender);\r\n        //IDaddress\r\n        uIDtoAddress[uID] = newUserAddress;\r\n        //\r\n        registeredUser[newUserAddress] = User({\r\n            uAccount : newUserAddress, \r\n            uID : uID,\r\n            uName : uName, \r\n            uGender : uGender, \r\n            uBirth : uBirth,\r\n            uNation : uNation,\r\n            uisActive : true});\r\n        isResteredUser[uID] = true;\r\n        //event\r\n        emit e_addUser(\r\n            newUserAddress, \r\n            uID, uName, \r\n            uGender, \r\n            uBirth,\r\n            uNation);\r\n    }\r\n    \r\n    \r\n    \r\n    //User\r\n    function getUserInfo(uint _uID) public returns(\r\n        uint uID, \r\n        string memory uName, \r\n        string memory uGender, \r\n        string memory uBirth,\r\n        string memory uNation) {\r\n        \r\n        //\r\n        require(uIDtoAddress[_uID] == msg.sender);\r\n        //user\r\n        User storage user = registeredUser[msg.sender];\r\n        //event\r\n        emit e_addUser(\r\n            user.uID, \r\n            user.uName, \r\n            user.uGender, \r\n            user.uBirth,\r\n            user.uNation);\r\n        //    \r\n        return(\r\n            user.uID, \r\n            user.uName, \r\n            user.uGender, \r\n            user.uBirth,\r\n            user.uNation);\r\n    }\r\n     \r\n}",
  "sourcePath": "D:\\eSportRecord\\contracts\\user.sol",
  "compiler": {
    "name": "solc",
    "version": "0.5.16+commit.9c3226ce.Emscripten.clang"
  },
  "schemaVersion": "3.0.23",
  "updatedAt": "2020-05-10T05:27:46.268Z",
  "networkType": "ethereum",
  "devdoc": {
    "methods": {}
  },
  "userdoc": {
    "methods": {
      "addUser(address,uint256,string,string,string,string)": {
        "notice": "/User"
      }
    }
  }
}